:1000000000800020B1010000DD010000DD010000E2
:10001000DD010000DD010000DD010000DD01000068
:10002000DD010000DD010000DD010000DD01000058
:10003000DD010000DD010000DD010000DD01000048
:100040004D7D0000DD010000DD010000DD0100004C
:10005000DD010000DD010000DD0100009508000069
:10006000DD010000DD010000DD0100007D900000E9
:10007000DD010000DD010000DD010000DD01000008
:1000800071940000DD010000DD010000DD010000D1
:10009000DD010000DD010000DD010000DD010000E8
:1000A0000D790000DD010000DD010000DD01000030
:1000B000DD010000DD010000150A0000DD01000087
:1000C000617A0000DD010000DD010000DD010000BB
:1000D000DD010000DD010000DD010000DD010000A8
:1000E00010B5054C237833B9044B13B10448AFF372
:1000F00000800123237010BD0004002000000000D8
:1001000050EB0000084B10B51BB108480849AFF38D
:1001100000800848036803B910BD074B002BFBD0D3
:10012000BDE81040184700BF0000000050EB000081
:10013000040400201403002000000000154B002BD5
:1001400008BF134B9D46A3F5803A00218B460F460E
:100150001348144A121A0AF05DFE0F4B002B00D010
:1001600098470E4B002B00D0984700200021040038
:100170000D000D48002802D00C48AFF300800AF0B3
:100180002DFD2000290009F001FB0AF07DFC00BFD5
:1001900000000800008000200000000000000000B7
:1001A000000400207814002000000000000000007F
:1001B000064880470649074A074B9A42BEBF51F896
:1001C000040B42F8040BF8E7FFF7B8FF5D030000EB
:1001D00084EB00000000002018030020FEE700BFB1
:1001E00080B400AF044BDB6C1B0EDBB21846BD467F
:1001F0005DF8047B704700BFB081E00F80B582B02E
:1002000000AF00F01FF87860074B5B6803F00F0346
:100210001A467B68D3407B60044A7B6813607B6826
:1002200018460837BD4680BD00800C4008000020FD
:1002300080B400AF024B1846BD465DF8047B7047A2
:10024000005A620280B582B000AF334BDB6A03F420
:100250007053B3F5805F0AD0B3F5005F03D0B3F5F8
:10026000006F08D00BE02D4B1B687B6047E04FF41C
:1002700000437B6043E02A4B1B687B603FE0264BDA
:10028000DB6803F4E063B3F5007F1BD0B3F5007FB8
:1002900005D8002B24D0B3F5807F16D02BE0B3F522
:1002A000806F09D0B3F5A06F03D0B3F5407F06D0BF
:1002B00021E01C4B7B6021E01B4B7B601EE01B4B55
:1002C0007B601BE01A4B7B6018E0FFF789FF034659
:1002D000122B02D9174B7B6010E0174B7B600DE0AF
:1002E000FFF77EFF0346122B02D9144B7B6005E01B
:1002F000134B7B6002E000237B6000BF00BF064B16
:100300001B6803F4E0339B0B01337A68B2FBF3F311
:1003100018460837BD4680BD00800C400400002010
:1003200000000020003FAB01406F4001809FD500DE
:10033000C0D8A70040B56400C0CF6A00804F12004B
:1003400040420F0080B400AF034B1B681846BD4607
:100350005DF8047B704700BF0000002080B400AF50
:10036000054A054BD3F8883043F47003C2F888304F
:10037000BD465DF8047B704700ED00E080B400AF3F
:100380004FF400431846BD465DF8047B704700BF3C
:1003900080B400AF4FF47A731846BD465DF8047B15
:1003A000704700BF80B400AF034B1B681846BD46C2
:1003B0005DF8047B704700BF0400002080B483B068
:1003C00000AF0346FB71084997F907305B09FA79DA
:1003D00002F01F02012000FA02F241F823200C373C
:1003E000BD465DF8047B704700E100E080B483B057
:1003F00000AF78607B685B6A18460C37BD465DF8D5
:10040000047B704780B483B000AF786039607B684C
:100410003A681A620C37BD465DF8047B704700BF2E
:1004200080B483B000AF786039607B685A693B68FC
:100430001A437B685A610C37BD465DF8047B7047F0
:1004400080B483B000AF78600B46FB70FA787B68AD
:100450005A600C37BD465DF8047B704780B400AF2E
:10046000054A054B1B6923F00403136130BFBD46E9
:100470005DF8047B704700BF00ED00E080B400AF82
:1004800072B6084B1B68B3F1FF3F04D0054B1B68E5
:100490000133044A1360034B1B681846BD465DF8E0
:1004A000047B7047A009002080B483B000AF0C4BE0
:1004B0001B68002B0DD00A4B1B68013B084A1360D8
:1004C000074B1B687B607B68002B00D162B67B68A2
:1004D00000E0002318460C37BD465DF8047B7047EA
:1004E000A009002080B485B000AF78601B4B1B686A
:1004F000FB601B4B1B681B4A126802FB03F2FB6884
:100500001344FB60184B1B68002B0CD0144B1B686A
:10051000154A126802FB03F3144A1288B3FBF2F285
:10052000FB681344FB60124B5B68104A1288B3FBF4
:10053000F2F2FB681344FB600E4B1B68FA6813442D
:10054000FB607B68002B02D07B68FA681A60FB684E
:1005500018461437BD465DF8047B70472004002020
:1005600024040020280400202C0400201C04002067
:10057000000008403404002080B582B000AF7860ED
:100580007B685B6A9AB2154B1A807B689B6A1A4635
:10059000134B1A60134B00221A60104B1B881A462B
:1005A0004FF0807393FBF2F31A460F4B1A600B4B1C
:1005B0001B881A464FF0807393FBF2F102FB01F2A5
:1005C0009B1A1A46094B1A607B68184600F010F80F
:1005D00000F02EF80837BD4680BD00BF1C04002087
:1005E0003804002024040020280400202C040020CB
:1005F00080B582B000AF786078680AF0E9FC024606
:10060000024B1A600837BD4680BD00BF20040020A1
:1006100080B400AF054B1B680133044A1360034BE1
:100620001B681846BD465DF8047B70472404002013
:1006300080B586B000AF2A4B1B6803F47F031B0C08
:10064000DAB2284B1A70264BDB681B0D9AB2264B88
:100650001A802648012105F04BF900233B74002342
:100660007B740023BB741F23FB7400233B750023A2
:100670007B7500233B7100237B710023BB7100233A
:10068000FB7100233B7200237B720023BB720023AB
:10069000FB7200233B73002004F0D6FD0346FB747D
:1006A0001348002104F09EFD03463B7507F110033B
:1006B0001048194604F004FD0023BB7108233B7267
:1006C0003B1D0C48194604F03FFD0A480121FFF785
:1006D000A7FE0720FFF772FE1837BD4680BD00BF9A
:1006E000B081E00F30040020320400200002050039
:1006F000801A0600002000402DE9B04384B000AF0E
:100700002B480121FFF79CFE05E0FFF7B7FEFFF73E
:10071000A5FEFFF7C9FE264B9B6803F48033002B30
:10072000F3D02348FFF762FEF860224B1B7818468F
:1007300009F052FE04460D461F4B1B88184609F06F
:100740003BFE80468946F86809F036FE02460B46B5
:100750004046494609F0F2FC02460B46104619464F
:1007600011A3D3E9002309F0C7FF02460B46204638
:10077000294609F0E5FC02460B46C7E90023D7E904
:10078000000109F089FC02460B46104619460AF0A2
:1007900023F90346DBB25BB218461037BD46BDE80D
:1007A000B08300BFAFF300803333333333331940AA
:1007B00000200040300400203204002080B582B0C8
:1007C00000AFFFF799FF0346BB7197F90630193B5D
:1007D00018460AF049F90346FB71FB79462B01D90B
:1007E0004623FB71FB79254A32F813301BB2244AA9
:1007F000126802FB03F2234B1B681344214A136067
:100800000FE0214B1B881A46204B03FB02F21D4BC5
:100810001B6813441B4A13601D4B1B68013B1C4A99
:100820001360194B1B881A464FF47A7303FB02F2CC
:10083000144B1B689A42E4DB10E0134B1B881A46EA
:100840004FF47A7303FB02F20E4B1B6813440D4AFC
:1008500013600F4B1B6801330D4A13600A4B1B8852
:100860001A460A4B03FB02F2064B1B689A42E4DC71
:10087000074B1B6818460837BD4680BDA0DD000049
:10088000380400203C0400201C04002018FCFFFF5A
:100890003404002080B500AF02480121FFF7B2FD0B
:1008A00080BD00BF0020004080B483B000AF03468D
:1008B000FB71084997F907305B09FA7902F01F02CA
:1008C000012000FA02F241F823200C37BD465DF802
:1008D000047B704700E100E080B483B000AF0346C2
:1008E000FB71094997F907305B09FA7902F01F0299
:1008F000012000FA02F2603341F823200C37BD4694
:100900005DF8047B704700BF00E100E080B483B075
:1009100000AF7860034A7B6893610C37BD465DF891
:10092000047B70470000084080B483B000AF78605B
:100930000549054BDA697B681343CB610C37BD462B
:100940005DF8047B704700BF0000084080B400AF32
:10095000034B1B691846BD465DF8047B704700BF1A
:1009600000000840B0B58CB000AF0D4B3C1D1D46DB
:100970000FCD0FC40FCD0FC495E8070084E8070022
:100980004FF40043BB623C23FB623B1D1846FFF75C
:10099000F3FD00F007F8012318463037BD46B0BD1F
:1009A00030DE000080B582B000AF1748022105F0AC
:1009B0007DF91648012104F09BFF1548012104F040
:1009C00097FF1248012104F07DFE00237B71002374
:1009D000BB7100233B713B1D184606F017F8002041
:1009E0004FF4F01105F0E4FF0320FFF79DFF1E20F8
:1009F000FFF772FF1E20FFF757FF012005F0F6FFFB
:100A00000837BD4680BD00BF02001A006016100006
:100A10000043020080B500AFFFF798FF034603F0E4
:100A20000203002B0DD00D4B9B6803F5F013002043
:100A3000194605F0BDFF0220FFF768FF084B0122B1
:100A40001A70FFF783FF034603F00103002B04D065
:100A5000FFF7DEFD0120FFF759FF80BD00000840D1
:100A60000D00002080B483B000AF0346FB71FB791A
:100A7000002B01D0012301E0034B1B7818460C37F3
:100A8000BD465DF8047B70470C00002090B585B032
:100A900000AF0346FB71FB79002B01D00123D3E0AB
:100AA0006B4B1B7803F00203002B02D0684B1B78C2
:100AB000CAE006F083FA06F01FFC0A23FB7305E088
:100AC000FF2006F03FFAFB7B013BFB73FB7B002B17
:100AD000F6D100237B730020002106F0A1FB034622
:100AE000012B40F094804FF4FA6006F029FC0820B6
:100AF0004FF4D57106F094FB0346012B57D1002328
:100B0000FB730DE0FC7BFF2006F01CFA03461A463F
:100B100007F11003234403F8082CFB7B0133FB731C
:100B2000FB7B032BEED9BB7A012B70D1FB7AAA2B6E
:100B30006DD100BF06F018FC034683F00103DBB261
:100B4000002B07D0A9204FF0804106F069FB034637
:100B5000002BEFD106F008FC034683F00103DBB263
:100B6000002B54D03A20002106F05AFB0346002BFC
:100B70004DD10023FB730DE0FC7BFF2006F0E2F972
:100B800003461A4607F11003234403F8082CFB7BA5
:100B90000133FB73FB7B032BEED93B7A03F040035D
:100BA000002B01D00C2300E004237B732FE0A9204D
:100BB000002106F035FB0346012B04D802237B738A
:100BC000A923BB7303E001237B730123BB7300BF25
:100BD00006F0CAFB034683F00103DBB2002B07D00B
:100BE000BB7B1846002106F01BFB0346002BEFD110
:100BF00006F0BAFB0346002B07D110204FF400711A
:100C000006F00EFB0346002B01D000237B737B7B99
:100C1000104A136006F0B2F97B7B002B09D00C4B15
:100C20001B7823F00103DAB2094B1A7006F076FB49
:100C300008E006F0CDF9064B1B7843F00103DAB269
:100C4000034B1A70024B1B7818461437BD4690BDF3
:100C50000C0000204004002080B584B000AFB960D3
:100C60007A603B600346FB73FB7B002B02D13B6841
:100C7000002B01D104234BE0274B1B7803F0010329
:100C8000002B01D0032343E0244B1B6803F008032F
:100C9000002B02D17B685B027B603B68012B11D18A
:100CA0001120796806F0BCFA0346002B28D1B868F9
:100CB0004FF4007106F09AF90346002B20D0002370
:100CC0003B601DE01220796806F0AAFA0346002B6B
:100CD00016D1B8684FF4007106F088F90346002B6E
:100CE00000D109E0BB6803F50073BB603B68013BC2
:100CF0003B603B68002BECD10C20002106F090FA01
:100D000006F03CF93B68002B14BF01230023DBB243
:100D100018461037BD4680BD0C000020400400205E
:100D200080B584B000AFB9607A603B600346FB7366
:100D3000FB7B002B02D13B68002B01D1042360E038
:100D4000324B1B7803F00103002B01D0032358E042
:100D50002E4B1B7803F00403002B01D0022350E03C
:100D60002B4B1B6803F00803002B02D17B685B024E
:100D70007B603B68012B10D11820796806F050FA8F
:100D80000346002B35D1B868FE2106F0B7F90346BB
:100D9000002B2ED000233B602BE01D4B1B6803F083
:100DA0000603002B03D09720396806F039FA192082
:100DB000796806F035FA0346002B1AD1B868FC2191
:100DC00006F09CF90346002B00D109E0BB6803F54F
:100DD0000073BB603B68013B3B603B68002BEDD17F
:100DE0000020FD2106F08AF90346002B01D10123E2
:100DF0003B6006F0C3F83B68002B14BF01230023BF
:100E0000DBB218461037BD4680BD00BF0C00002085
:100E10004004002090B58BB000AF03463A60FB71F0
:100E20000B46BB713B683B62FB79002B01D004236E
:100E30007EE1C14B1B7803F00103002B01D003239B
:100E400076E1012387F82730BB790A2B00F0028175
:100E50000A2B0BDC012B2ED0012B02DC002B17D030
:100E60005FE1022B76D0032B7CD05AE10D2B00F0F2
:100E700020810D2B06DC0B2B00F0F5800C2B00F0F5
:100E800005814EE10E2B00F03681FF2B0CD048E19E
:100E900006F080F80346002B05D006F06FF800231B
:100EA00087F8273040E13FE1A34B01221A7000236D
:100EB00087F8273038E10920002106F0B1F9034610
:100EC000002B46D107F10C031846102106F08EF8CE
:100ED0000346002B3DD03B7B9B09DBB2012B0BD1A2
:100EE0007B7D1A463B7D1B0213440133FB61FB698A
:100EF0009A023B681A6028E07B7C03F00F03DAB2A9
:100F0000BB7DDB09DBB21344DAB27B7D03F0030364
:100F1000DBB25B00DBB21344DBB2023387F826306E
:100F20003B7D9B09DBB21A46FB7C9B001A44BB7CD1
:100F300003F003039B0213440133FB6197F826304F
:100F4000093BFA699A403B681A60002387F827300A
:100F5000EAE0E9E03B684FF400721A80002387F86A
:100F60002730E1E0754B1B6803F00403002B2FD002
:100F70008D20002106F054F90346002B69D1FF2093
:100F800005F0E0FF07F10C031846102106F02EF8DB
:100F90000346002B5DD0302387F8263007E0FF2082
:100FA00005F0D0FF97F82630013B87F8263097F8F8
:100FB0002630002BF3D1BB7D1B09DBB21A46102370
:100FC00003FA02F23B681A60002387F82730ABE08F
:100FD0000920002106F024F90346002B39D107F13E
:100FE0000C031846102106F001F80346002B30D000
:100FF000524B1B6803F00203002B12D0BB7D03F0A1
:101000003F035B00FA7DD209D2B213445A1C7B7EA7
:101010009B09DBB2013B02FA03F31A463B681A60F4
:1010200013E0BB7D03F07C039B109BB20133FA7D80
:1010300002F00302D200F97D4909C9B20A44013223
:1010400002FB03F31A463B681A60002387F8273037
:101050006AE069E0394B1B68DAB23B6A1A70002318
:1010600087F8273060E00920002106F0D9F8034610
:10107000002B0AD13868102105F0B8FF0346002B79
:1010800003D0002387F827304EE04DE00A200021EE
:1010900006F0C6F80346002B0AD13868102105F087
:1010A000A5FF0346002B03D0002387F827303BE041
:1010B0003AE03A20002106F0B3F80346002B19D19C
:1010C000002387F826300DE097F826303A68D418C8
:1010D000FF2005F037FF0346237097F826300133D1
:1010E00087F8263097F82630032BEDD9002387F8B0
:1010F000273019E018E08D20002106F091F8034612
:10110000002B0DD1FF2005F01DFF3868402105F0B0
:10111000F5FF0346002B03D0002387F8273003E0B8
:1011200002E0042387F8273005F028FF97F82730DE
:1011300018462C37BD4690BD0C000020400400200E
:1011400080B485B000AF78607B6801331B78FB8189
:10115000FB891B029AB27B681B789BB213439BB23C
:10116000FB81FB8918461437BD465DF8047B704748
:1011700080B485B000AF78607B6803331B78FB6078
:10118000FB681B027A68023212781343FB60FB682B
:101190001B027A68013212781343FB60FB681B0262
:1011A0007A6812781343FB60FB6818461437BD4613
:1011B0005DF8047B704700BF2DE9B00F8DB000AF24
:1011C00078627B6A07331B78DAB24FF00003C7E915
:1011D0000A23D7E90A231D0245EA126514027B6A35
:1011E00006331B78DAB24FF0000342EA040243EA06
:1011F0000503C7E90A23D7E90A231902F961F96946
:1012000041EA1261F9611302BB617B6A05331B7805
:10121000DAB24FF00003D7E9060140EA020041EAE2
:10122000030102460B46C7E90A23D7E90A2319023C
:101230007961796941EA1261796113023B617B6AE4
:1012400004331B78DAB24FF00003D7E9040140EA17
:10125000020041EA030102460B46C7E90A23D7E927
:101260000A231902F960F96841EA1261F960130270
:10127000BB607B6A03331B78DAB24FF00003D7E917
:10128000020140EA020041EA030102460B46C7E9B7
:101290000A23D7E90A2319027960796841EA1261C1
:1012A000796013023B607B6A02331B78DAB24FF03D
:1012B0000003D7E9000140EA020041EA03010246C7
:1012C0000B46C7E90A23D7E90A234FEA032B4BEA67
:1012D000126B4FEA022A7B6A01331B78DAB24FF0B5
:1012E000000342EA0A0243EA0B03C7E90A23D7E9EB
:1012F0000A234FEA032949EA12694FEA02287B6A66
:101300001B78DAB24FF0000342EA080243EA09030D
:10131000C7E90A23D7E90A23104619463437BD46E0
:10132000BDE8B00F704700BF80B483B000AF7860F5
:101330000B467B807B685A1C7A607A88D2B21A701E
:101340007B881B0A7B807B685A1C7A607A88D2B2C1
:101350001A700C37BD465DF8047B704780B483B0CB
:1013600000AF786039607B685A1C7A603A68D2B204
:101370001A703B681B0A3B607B685A1C7A603A68AB
:10138000D2B21A703B681B0A3B607B685A1C7A60B9
:101390003A68D2B21A703B681B0A3B607B685A1CE1
:1013A0007A603A68D2B21A700C37BD465DF8047B99
:1013B000704700BF2DE9B00F8DB000AFF862C7E9EC
:1013C0000823FA6A531CFB6297F820301370D7E9A0
:1013D0000823140A44EA03641D0AC7E90845FA6AA7
:1013E000531CFB6297F820301370D7E90823110AC9
:1013F000B961B96941EA0361B9611B0AFB61D7E9C7
:101400000623C7E90823FB6A5A1CFA6297F82020D2
:101410001A70D7E90823110A3961396941EA036171
:1014200039611B0A7B61D7E90423C7E90823FB6AFA
:101430005A1CFA6297F820201A70D7E90823110A7B
:10144000B960B96841EA0361B9601B0AFB60D7E97A
:101450000223C7E90823FB6A5A1CFA6297F8202086
:101460001A70D7E90823110A3960396841EA036123
:1014700039601B0A7B60D7E90023C7E90823FB6AB0
:101480005A1CFA6297F820201A70D7E908234FEA0D
:10149000122A4AEA036A4FEA132BC7E908ABFB6A30
:1014A0005A1CFA6297F820201A70D7E908234FEAED
:1014B000122848EA03684FEA1329C7E90889FB6A3A
:1014C0005A1CFA6297F820201A703437BD46BDE8DE
:1014D000B00F704780B487B000AFF860B9607A6031
:1014E000FB687B61BB683B617B68002B0DD07B692F
:1014F0005A1C7A613A69511C396112781A707B68FA
:10150000013B7B607B68002BF1D11C37BD465DF849
:10151000047B704780B487B000AFF860B9607A6030
:10152000FB687B617B695A1C7A61BA68D2B21A7017
:101530007B68013B7B607B68002BF3D11C37BD4689
:101540005DF8047B704700BF80B489B000AFF860DD
:10155000B9607A60FB68FB61BB68BB6100237B619B
:10156000FB695A1CFA611B781946BB695A1CBA619F
:101570001B78CB1A7B617B68013B7B607B68002B0F
:1015800002D07B69002BEBD07B6918462437BD461F
:101590005DF8047B704700BF80B483B000AF786013
:1015A000396002E07B6801337B607B681B78002B2D
:1015B00005D07B681B781A463B689A42F2D17B685B
:1015C0001B7818460C37BD465DF8047B704700BF9A
:1015D00080B586B000AF78600023FB737B68DB7852
:1015E000002B36D07B685B6B7B617B685A787B68AD
:1015F0003833104619467A690123FFF791FB0346F9
:10160000002B02D00123FB7323E07B680022DA70F9
:101610007B689B6A7A69D21A7B681B6A9A4218D2E5
:101620007B689B783B6111E07B681B6A7A69134495
:101630007B617B685A787B683833104619467A6933
:101640000123FFF76DFB3B69013B3B613B69012BCC
:10165000EAD8FB7B18461837BD4680BD80B584B0FC
:1016600000AF786039600023FB737B685A6B3B687E
:101670009A421CD07868FFF7ABFF0346FB73FB7BF5
:10168000002B14D17B685A787B6838331046194692
:101690003A680123FFF7E0FA0346002B04D04FF02D
:1016A000FF333B600123FB737B683A685A63FB7B23
:1016B00018461037BD4680BD80B584B000AF786055
:1016C0007868FFF785FF0346FB73FB7B002B57D140
:1016D0007B681B78032B47D17B681B79012B43D197
:1016E0007B683833184600214FF40072FFF712FF71
:1016F0007B6803F2362318464AF65521FFF714FE9D
:101700007B68383318462149FFF728FE7B6803F5CC
:10171000077318461E49FFF721FE7B6803F5087220
:101720007B689B6910461946FFF718FE7B6803F536
:1017300009727B685B6910461946FFF70FFE7B68EC
:101740005B6A5A1C7B685A637B6859787B6803F133
:1017500038027B685B6B084611461A460123FFF787
:10176000DFFA7B6800221A717B685B7818460021DB
:101770000022FFF74FFB0346002B01D00123FB7330
:10178000FB7B18461037BD4680BD00BF52526141F9
:101790007272416180B483B000AF786039603B6899
:1017A000023B3B607B68DB699A1E3B689A4201D82A
:1017B000002308E07B685B891A463B6803FB02F262
:1017C0007B681B6B134418460C37BD465DF8047BE1
:1017D000704700BF80B588B000AF78603960796825
:1017E0000968B9613968012904D9B969C8693968D2
:1017F000884202D80123FB61EAE04FF0FF31F96132
:10180000B96909780139032900F2E08001A050F894
:1018100021F000BF25180000AD180000E1180000FD
:10182000191900003B687B617B695B087A69134486
:101830007B61BB699A6A7B695B0A1344B869194684
:10184000FFF70CFF0346002B00D0C1E07B695A1C58
:101850007A61C3F30803BA69134493F838303B61E3
:10186000BB699A6A7B695B0A1344B8691946FFF73A
:10187000F5FE0346002B00D0AAE07B69C3F3080302
:10188000BA69134493F838301B021A463B69134374
:101890003B613B6803F00103002B02D03B691B094D
:1018A00002E03B69C3F30B03FB6191E0BB699A6AF9
:1018B0003B681B0A1344B8691946FFF7CFFE03467D
:1018C000002B00D084E03B685B0003F4FF733833E7
:1018D000BA6913441846FFF733FC0346FB6177E00F
:1018E000BB699A6A3B68DB091344B8691946FFF77C
:1018F000B5FE0346002B00D06AE03B689B0003F472
:10190000FE733833BA6913441846FFF731FC0346B7
:1019100023F07043FB615BE07968D1E90401014386
:1019200054D0796889683868411AF9607968D1E9D2
:10193000040110F1FF3041F1FF31420A42EAC15285
:101940004B0ABB695B89B2FBF3F3BB607B68DB7955
:10195000022B0ED1FA68BB689A420AD8FA68BB68B3
:101960009A4202D03B68013301E06FF00043FB6113
:101970002EE07B68DB79032B08D17B689A69FB68D2
:101980009A4203D93B680133FB6121E07B68DB7934
:10199000022B1BD0BB699A6A3B68DB091344B86908
:1019A0001946FFF75BFE0346002B00D010E03B68B2
:1019B0009B0003F4FE733833BA6913441846FFF7EB
:1019C000D7FB034623F00043FB6101E00123FB61E9
:1019D000FB6918462037BD4680BD00BF90B589B071
:1019E00000AFF860B9607A600223FB77BB68012B17
:1019F00040F2D980FB68DA69BB689A4240F2D38032
:101A0000FB681B78013B032B00F2CD8001A252F84A
:101A100023F000BF251A0000FF1A00003F1B000042
:101A20003F1B0000BB68BB61BB695B08BA6913441C
:101A3000BB61FB689A6ABB695B0A1344F868194684
:101A4000FFF70CFE0346FB77FB7F002B00D0AAE0DC
:101A5000BB695A1CBA61C3F308033833FA681344EC
:101A60007B61BB6803F00103002B0DD07B691B7801
:101A7000DBB203F00F03DAB27B68DBB21B01DBB22F
:101A80001343DBB2DBB201E07B68DBB27A6913702F
:101A9000FB680122DA70FB689A6ABB695B0A13442F
:101AA000F8681946FFF7DAFD0346FB77FB7F002B4A
:101AB00000D078E0BB69C3F308033833FA681344F5
:101AC0007B61BB6803F00103002B03D07B681B091B
:101AD000DBB20EE07B691B78DBB223F00F03DAB2D6
:101AE0007B681B0ADBB203F00F03DBB21343DBB2EC
:101AF000DBB27A691370FB680122DA7053E0FB688D
:101B00009A6ABB681B0A1344F8681946FFF7A6FDDA
:101B10000346FB77FB7F002B00D044E0BB685B00F3
:101B200003F4FF733833FA681A447B689BB210469B
:101B30001946FFF7F9FBFB680122DA7033E0FB6816
:101B40009A6ABB68DB091344F8681946FFF786FDFB
:101B50000346FB77FB7F002B00D024E0FB681B785B
:101B6000042B11D07B6823F07044BB689B0003F406
:101B7000FE733833FA6813441846FFF7F9FA034640
:101B800003F0704323437B60BB689B0003F4FE7348
:101B90003833FA68134418467968FFF7DFFBFB68AF
:101BA0000122DA7000BFFB7F18462437BD4690BD86
:101BB00080B58AB000AFF860B9607A60BB68023B5C
:101BC000BB60FB68DB699A1EBB689A4201D80023A0
:101BD000BB60BB68FB61FB69BB6100237B61FB6889
:101BE0001A6BFB691B0B1344F8681946FFF736FDA7
:101BF0000346002B02D04FF0FF3351E0FB69DB08B6
:101C0000C3F308033B62FB6903F00703012202FAF6
:101C100003F387F82730FA683B6A134438331A789D
:101C200097F827301340FB7497F827305B0087F84C
:101C30002730FB690133FB61FB68DB69023BFA6912
:101C40009A4207D30023FB61002387F827304FF423
:101C500080533B62FB7C002B09D17B6901337B61A4
:101C60007A697B689A4206D1BB69023318E0FB6946
:101C7000BB6100237B61FA69BB689A4201D10023F2
:101C80000EE097F82730002BC5D1012387F82730C5
:101C90003B6A01333B623B6AB3F5007FBBD39EE7EF
:101CA00018462837BD4680BD80B588B000AFF860C3
:101CB000B9607A603B60BB68023BBB60FB681A6B33
:101CC000BB681B0B13447B61BB68DB08C3F30803D1
:101CD000BB61BB6803F00703012202FA03F3FB7741
:101CE0007B695A1C7A61F8681946FFF7B7FC03460E
:101CF000002B01D001233DE0FA68BB69134438335F
:101D00001A78FB7F1340DBB2002B14BF01230023A2
:101D1000DBB21A463B689A4201D102232AE0FA68F4
:101D2000BB69134438331A78FB7F5340D9B2FA6841
:101D3000BB69134438330A461A70FB680122DA7013
:101D40007B68013B7B607B68002B01D1002311E0A5
:101D5000FB7F5B00FB77FB7F002BCDD10123FB7763
:101D6000BB690133BB61BB69B3F5007FC4D30023FA
:101D7000BB61B5E718462037BD4680BD80B586B04B
:101D800000AF78607B68DB79032B22D17B689B688E
:101D90007B617B689B693B6115E07B681A687B69A6
:101DA0000133104679691A46FFF718FE0346FB73A4
:101DB000FB7B002B01D0FB7B0CE07B6901337B615B
:101DC0003B69013B3B613B69002BE6D17B6800220C
:101DD000DA71002318461837BD4680BD80B58AB039
:101DE00000AFF860B9607A600023FB77FB681B687E
:101DF000BB61BB687B62BB683B62BB68012B04D9DB
:101E0000BB69DA69BB689A4201D8022396E07B6815
:101E1000002B14D0BB691B78042B03D1FB68DB7942
:101E2000022B0CD0B86979684FF0FF32FFF7D6FD6E
:101E30000346FB77FB7F002B01D0FB7F7EE0F86839
:101E4000B968FFF7C7FC78617B69002B00D155E0CA
:101E50007B69012B01D1022370E07B69B3F1FF3F65
:101E600001D101236AE0BB691B78042B0BD0B86950
:101E7000B9680022FFF7B2FD0346FB77FB7F002B1A
:101E800001D0FB7F5AE0BB699A69BB69DB69023B01
:101E90009A420BD2BB699B695A1CBB699A61BB69A8
:101EA0001B7943F00103DAB2BB691A713B6A5A1C11
:101EB0007B699A4202D17B693B6218E0BB691B785F
:101EC000042B10D13A6A7B6AD31A0133B869796A54
:101ED0001A460023FFF7E8FE0346FB77FB7F002B43
:101EE00001D0FB7F2AE07B693B623B6A7B627B69B6
:101EF000BB60BB69DA69BB689A42A0D8BB691B7832
:101F0000042B1AD17B68002B03D1FB680022DA7105
:101F100013E0FB68DB79032B0FD1FB689A687B68C1
:101F20009A420AD8FB689A68FB689B691A447B68E6
:101F30009A4202D3FB680222DA710023184628373E
:101F4000BD4680BD80B588B000AF786039607B68E1
:101F50001B683B613B68002B0DD13B695B69BB6132
:101F6000BB69002B04D03B69DA69BB699A421BD874
:101F70000123BB6118E078683968FFF72BFCF86033
:101F8000FB68012B01D80123BCE0FB68B3F1FF3FE4
:101F900001D1FB68B6E03B69DA69FB689A4201D976
:101FA000FB68AFE03B68BB613B691B78042B3BD10E
:101FB0003869B9690122FFF7FBFDF861FB69002B65
:101FC00003D0FB69B3F1FF3F01D1FB699AE03869A7
:101FD000F96901220123FFF767FE0346FB75FB7DCC
:101FE000022B01D101238DE0FB7D012B02D14FF0AB
:101FF000FF3387E03B68002B03D17B680222DA7154
:102000003DE07B68DB79022B39D1BB695A1CFB6947
:102010009A4234D07B689B68BA69D21A7B689A610D
:102020007B680322DA712AE0BB69FB61FB6901333B
:10203000FB613B69DA69FB699A4207D80223FB61BD
:10204000FA69BB699A4201D900235BE07868F969B3
:10205000FFF7C0FBF860FB68002B00D10FE0FB68C6
:10206000012B03D0FB68B3F1FF3F01D1FB6849E0CE
:10207000FA69BB699A4201D1002343E0D6E73B6984
:102080001B78042B06D17B68DB79022B02D100235D
:10209000FB7514E03869F9694FF0FF32FFF79EFCD9
:1020A0000346FB75FB7D002B09D13B68002B06D056
:1020B00038693968FA69FFF791FC0346FB75FB7DC7
:1020C000002B16D13B69FA695A613B699A693B69F1
:1020D000DB69023B9A4204D23B699B695A1E3B6909
:1020E0009A613B691B7943F00103DAB23B691A71CB
:1020F00007E0FB7D012B02D14FF0FF3300E001230D
:10210000FB61FB6918462037BD4680BD80B586B0AF
:1021100000AF786039607B681B683B613B691B7866
:10212000042B02D14FF0805201E04FF400123B68C3
:102130009A4204D93B6803F01F03002B01D002230D
:1021400065E07B683A689A627B689B687B617B6923
:10215000002B09D13B691B78022B05D93B69DB6A4F
:102160007B617B680022DA717B69002B0CD13B68B4
:102170005B093A691289934201D3022347E03B6924
:10218000DA6A7B681A6329E03B695B895B02FB6062
:1021900019E07B6818467969FFF71CFB78617B6959
:1021A000B3F1FF3F01D1012331E07B69012B04D959
:1021B0003B69DA697B699A4201D8022327E03A68D1
:1021C000FB68D31A3B603A68FB689A42E1D23869EF
:1021D0007969FFF7DFFA02467B681A637B687A69E0
:1021E000DA627B681B6B002B01D102230FE07B6856
:1021F0001A6B3B685B0A1A447B681A633B68C3F33B
:10220000080338333A691A447B685A630023184636
:102210001837BD4680BD00BF80B586B000AF78607E
:1022200039607B681B68FB607B689B6A2033BB60FE
:102230007B681B6B002B0BD0FB681B78042B02D137
:102240004FF0805201E04FF40012BB689A4201D86F
:102250000423B1E0BB68C3F30803002B40F0A08067
:102260007B681B6B5A1C7B681A637B68DB6A002BDC
:102270000BD1BB685B09FA6812899342C0F0908069
:102280007B6800221A63042396E0BB685B0AFA6845
:102290005289013A1340002B40F082807A687B68B3
:1022A000DB6A10461946FFF795FA78617B69012BC6
:1022B00001D8022380E07B69B3F1FF3F01D1012304
:1022C0007AE0FB68DA697B699A425FD83B68002B49
:1022D00004D17B6800221A6304236DE07A687B686E
:1022E000DB6A10461946FFF72DFE78617B69002BEB
:1022F00001D1072360E07B69012B01D102235BE060
:102300007B69B3F1FF3F01D1012355E07B68DB79A5
:1023100043F00403DAB27B68DA71F868FFF758F922
:102320000346002B01D0012346E0FB6838331846F2
:1023300000214FF40072FFF7EDF800233B61F868CD
:102340007969FFF727FA0246FB685A6312E0FB68D7
:102350000122DA70F868FFF73BF90346002B01D041
:10236000012329E03B6901333B61FB685B6B5A1C2D
:10237000FB685A63FB685B891A463B699A42E6D858
:10238000FB685A6B3B69D21AFB685A637B687A69AF
:10239000DA62F8687969FFF7FDF902467B681A632B
:1023A0007B68BA689A62BB68C3F308033833FA687B
:1023B0001A447B685A63002318461837BD4680BD0F
:1023C00080B586B000AF786039607B681B68FB60C1
:1023D00078680021FFF79AFE0346FB75FB7D002B12
:1023E0003FD100233B617B681B6BF8681946FFF700
:1023F00035F90346FB75FB7D002B00D031E0FB680F
:102400001B78042B08D17B685B6B1B78DBB2DB434A
:10241000DBB2DB09DBB20FE07B685B6B1B78E52B83
:1024200004D07B685B6B1B78002B01D1012300E09B
:10243000002303F00103DBB2002B07D03B6901331B
:102440003B613A693B689A4202D10AE000233B6152
:1024500078680121FFF7E0FE0346FB75FB7D002B4A
:10246000C1D0FB7D042B01D10723FB75FB7D1846F2
:102470001837BD4680BD00BF80B584B000AF78601E
:1024800039603B681A331846FEF75AFE0346FB6074
:102490007B681B78032B09D13B6814331846FEF781
:1024A0004FFE03461B04FA681343FB60FB681846A3
:1024B0001037BD4680BD00BF80B584B000AFF86066
:1024C000B9607A60BB6803F11A027B689BB2104660
:1024D0001946FEF729FFFB681B78032B09D1BB685F
:1024E00003F114027B681B0C9BB210461946FEF7E1
:1024F0001BFF1037BD4680BD90B587B000AF786038
:1025000039603B681A331846FEF71AFE0346002B63
:1025100001D0002359E03B681B7803F03F035A1EAB
:1025200013465B0013449B0013447B610123FB8132
:1025300000233B6133E0274A3B6913441B781A466A
:102540003B6813441846FEF7FBFD0346BB81FB893D
:10255000002B1AD07B69FE2B12D8BB89184602F0DB
:102560007FFB03461C467B695A1C7A615B007A68D4
:1025700013441B88184602F073FB03469C4201D0AB
:10258000002322E0BB89FB8106E0BB894FF6FF7286
:10259000934201D0002318E03B6901333B613B6962
:1025A0000C2BC8D93B681B7803F04003002B0BD0E1
:1025B000FB89002B08D07B695B007A6813441B8879
:1025C000002B01D0002300E0012318461C37BD4634
:1025D00090BD00BFDCDE000080B586B000AF786043
:1025E00039603B681A331846FEF7AAFD0346002BF4
:1025F00001D000234DE03B681B7803F03F035A1ED7
:1026000013465B0013449B0013447B610123FB8151
:1026100000233B6128E0214A3B6913441B781A469A
:102620003B6813441846FEF78BFD0346BB81FB89CC
:10263000002B0FD07B69FE2B01D9002329E07B6999
:102640005A1C7A615B007A681344BA89FA81FA8964
:102650001A8006E0BB894FF6FF72934201D0002337
:1026600017E03B6901333B613B690C2BD3D93B68D5
:102670001B7803F04003002B0AD07B69FE2B01D9A5
:10268000002306E07B695B007A68134400221A800D
:10269000012318461837BD4680BD00BFDCDE0000B0
:1026A00080B588B000AFF860B96011461A460B4695
:1026B000FB711346BB71BB680D33BA791A70BB68E6
:1026C0000B330F221A70BB680C3300221A70BB68E0
:1026D0001A3318460021FEF727FEFB795A1E1346CF
:1026E0005B0013449B001344FB610023FB82002327
:1026F000BB61FB8A4FF6FF72934207D0FB695A1CFD
:10270000FA615B00FA6813441B88FB82164ABB69B6
:1027100013441B781A46BB681A44FB8A10461946B4
:10272000FEF702FEFB8A002B02D14FF6FF73FB82FD
:10273000BB690133BB61BB690C2BDAD9FB8A4FF64D
:10274000FF72934206D0FB695B00FA6813441B8852
:10275000002B03D1FB7943F04003FB71BB68FA798E
:102760001A702037BD4680BDDCDE000080B58CB01D
:1027700000AFF860B9607A603B60F868B9680B2216
:10278000FEF7A8FE3B68052B2BD93B68FB6122E0D6
:102790007B689A1C7A601B887B840023BB6217E0ED
:1027A000FB695A007B8C03F001031344FB617B8CB3
:1027B0005B087B84FB6903F48033002B05D0FB6945
:1027C00083F4883383F02103FB61BB6A0133BB626E
:1027D000BB6A0F2BE4D97B681B88002BD8D1FB691F
:1027E0003B600723BB623B68DBB203F00F03DBB245
:1027F000303387F82F3097F82F30392B04D997F8DA
:102800002F30073387F82F30BB6A5A1EBA6207F1A0
:102810003002134497F82F2003F81C2C3B681B0947
:102820003B603B68002BDED107F11402BB6A134406
:102830007E221A7000237B6202E07B6A01337B6296
:102840007A6ABB6A9A4205D2FA687B6A13441B789B
:10285000202BF2D17B6A5A1C7A62FA681A44BB6A4E
:10286000072B08D8BB6A591CB96207F130010B4429
:1028700013F81C3C00E0202313707B6A072BE9D976
:102880003037BD4680BD00BF80B485B000AF7860F2
:102890000023FB730B23BB60FB7BDAB25208DB0126
:1028A0001343DAB27B68591C79601B781344FB73BD
:1028B000BB68013BBB60BB68002BEDD1FB7B1846BE
:1028C0001437BD465DF8047B704700BF80B487B005
:1028D00000AF78607B6801331B7801335B01FB60DC
:1028E00000237B8200237B611EE07B69022B03D1E6
:1028F0007B6901337B6114E07B8A03F00103002BC9
:1029000002D04FF4004200E000227B8A5B089BB2B9
:1029100013449AB279687B690B441B789BB21344C9
:102920007B827B6901337B617A69FB689A42DCD3E5
:102930007B8A18461C37BD465DF8047B704700BF94
:1029400080B584B000AF78600023FB812BE0BB89A9
:10295000184602F085F90346BB81FB8903F00103A9
:10296000002B02D04FF4004200E00022FB895B08FC
:102970009BB213449AB2BB89DBB29BB21344FB8176
:10298000FB8903F00103002B02D04FF4004200E06A
:102990000022FB895B089BB213449AB2BB891B0AD5
:1029A0009BB21344FB817B689A1C7A601B88BB81B5
:1029B000BB89002BCBD1FB8918461037BD4680BDA3
:1029C00090B587B000AF78607B681B681B693B617E
:1029D0007B681A687B681B6B10461946FEF73EFE43
:1029E0000346FB73FB7B002B01D0FB7B8CE07B68F9
:1029F0005B6B1B78852B01D0022385E07B685B6BCA
:102A0000386919462022FEF765FD3B6901331B78C2
:102A10000133BB6078680021FFF7FEFB0346FB73C0
:102A2000FB7B002B01D0FB7B6EE07B681A687B6828
:102A30001B6B10461946FEF711FE0346FB73FB7B2A
:102A4000002B01D0FB7B5FE07B685B6B1B78C02BAE
:102A500001D0022358E03B6903F120027B685B6BE5
:102A6000104619462022FEF735FDBB68022B02D91D
:102A7000BB68132B01D9042346E040237B61BB686C
:102A80005B01BB6078680021FFF7C6FB0346FB7360
:102A9000FB7B002B01D0FB7B36E07B681A687B68F0
:102AA0001B6B10461946FEF7D9FD0346FB73FB7BF3
:102AB000002B01D0FB7B27E07B685B6B1B78C12B75
:102AC00001D0022320E03A697B691A447B685B6B82
:102AD000104619462022FEF7FDFC7B6920337B61FE
:102AE0007A69BB689A42CDD33869FFF7EFFE034697
:102AF0001C463B6902331846FEF722FB03469C4204
:102B000001D0022300E0002318461C37BD4690BDCB
:102B100080B584B000AF786039603B681A687B6824
:102B20001A603B68DA697B689A603B681B6ADAB2B4
:102B30007B68DA713B681B6A1A464FF000036FF03E
:102B4000FF004FF0000102EA000203EA0103796886
:102B5000C1E904233B685A6A7B685A647B685B6CF2
:102B600078681946FFF7D2FA0346FB73FB7B002B0C
:102B700004D17868FFF724FF0346FB73FB7B1846FC
:102B80001037BD4680BD00BF90B587B000AF7860FC
:102B90007B681B681B69FB60FB689C1CF868FFF77F
:102BA00095FE034620461946FEF7BEFBFB6801333F
:102BB0001B7801333B617B685B6C78681946FFF7D3
:102BC000A5FA0346FB7528E07B681A687B681B6BD7
:102BD00010461946FEF742FD0346FB75FB7D002BB0
:102BE00000D01DE07B685B6B1846F9682022FEF779
:102BF00071FC7B681B680122DA703B69013B3B6119
:102C00003B69002B00D10BE0FB682033FB60786848
:102C10000021FFF701FB0346FB75FB7D002BD3D0A2
:102C2000FB7D002B02D0FB7D012B01D1FB7D00E061
:102C3000022318461C37BD4690BD00BF90B585B035
:102C400000AF78603960786800214022FEF762FCAE
:102C50007B6885221A707B682033C0221A707B68DB
:102C600003F124043868FFF76BFE0346204619463B
:102C7000FEF75AFB4023FB600023BB720123FB726B
:102C800001233B81FB685A1CFA607A681344C12215
:102C90001A70FB685A1CFA607A68134400221A7092
:102CA0003B89002B0BD0BB7A5B003A6813441B882E
:102CB0003B813B89002B02D0BB7A0133BB727A681F
:102CC000FB681A443B8910461946FEF72DFBFB684A
:102CD0000233FB60FB6803F01F03002BE0D1FB7A9B
:102CE0000133FB72BB7A5B003A6813441B88002BEC
:102CF000C8D17B682333BA7A1A707B680133FA7AB9
:102D00001A701437BD4690BD80B586B000AF7860AC
:102D100039600423FB757B681B683B61FF237B756F
:102D2000FF233B75A2E07B681B6B38691946FEF7F1
:102D300095FC0346FB75FB7D002B00D09BE07B6878
:102D40005B6B1B78BB75BB7D002B02D10423FB752D
:102D500091E03B691B78042B19D1BB7D852B7BD17E
:102D60007B689A6A7B685A647868FFF729FE034695
:102D7000FB75FB7D002B09D13B691B6904331B7874
:102D800003F03F03DAB27B689A7174E073E07B680A
:102D90005B6B0B331B7803F03F03FB737B68FA7BA1
:102DA0009A71BB7DE52B0ED0BB7D2E2B0BD0FB7B10
:102DB00023F02003082B0CBF01230023DBB21A46AB
:102DC0003B689A4202D0FF237B7545E0FB7B0F2BCB
:102DD0002FD1BB7D03F04003002B0DD07B685B6BD4
:102DE0005B7B3B75BB7D23F04003BB75BB7D7B7577
:102DF0007B689A6A7B685A64BA7D7B7D9A4215D15A
:102E00007B685B6B0D331B783A7D9A420ED13B6930
:102E1000DA687B685B6B10461946FFF7DDFB0346FB
:102E2000002B03D07B7D013BDBB200E0FF237B75F1
:102E300012E07B7D002B09D17B685B6B1846FFF7A6
:102E400023FD03461A463B7D934204D07B684FF036
:102E5000FF325A640FE00EE078680021FFF7DCF9DA
:102E60000346FB75FB7D002B00D004E07B681B6BE9
:102E7000002B7FF458AFFB7D002B02D07B68002233
:102E80001A63FB7D18461837BD4680BD90B589B0E2
:102E900000AF78607B681B68FB6078680021FFF7F3
:102EA00035F90346FB77FB7F002B01D0FB7F0DE15B
:102EB000FB681B78042B62D1FB68DB681846FFF7C0
:102EC0003FFD03467B814FE0FB681B6924331846B6
:102ED000FEF736F903461A467B89934200D043E059
:102EE000FB681B6993F82330FB7640237B6100234A
:102EF0003B612AE07B6903F01F03002B02D17B6951
:102F000002337B61FB681A697B6913441846FEF73C
:102F100017F90346184601F0A3FE03461C46FB685A
:102F2000DA683B695B0013441B88184601F098FE81
:102F300003469C4200D00BE0FB7E013BFB767B69A5
:102F400002337B613B6901333B61FB7E002BD1D1B6
:102F5000FB7E002B08D1FB68DA683B695B001344F9
:102F60001B88002B00D108E078680021FFF7CCFE19
:102F70000346FB77FB7F002BA6D0FB7FA6E0FF2359
:102F80003B773B7F7B777B684FF0FF325A647B68EF
:102F90001B6BF8681946FEF761FB0346FB77FB7F66
:102FA000002B00D091E07B685B6B1B78BB77BB7F0D
:102FB000002B02D10423FB7787E07B685B6B0B332C
:102FC0001B7803F03F037B727B687A7A9A71BB7F30
:102FD000E52B07D07B7A03F00803002B09D07B7A1E
:102FE0000F2B06D0FF237B777B684FF0FF325A64AC
:102FF00061E07B7A0F2B36D17B6893F8433003F086
:103000004003002B57D1BB7F03F04003002B0DD0B2
:103010007B685B6B5B7B3B77BB7F23F04003BB77BD
:10302000BB7F7B777B689A6A7B685A64BA7F7B7FB9
:103030009A4215D17B685B6B0D331B783A7F9A42BD
:103040000ED1FB68DA687B685B6B10461946FFF7A8
:1030500053FA0346002B03D07B7F013BDBB200E039
:10306000FF237B7727E07B7F002B0AD17B685B6B9C
:103070001846FFF709FC03461A463B7F934200D1EE
:1030800023E07B6893F8433003F00103002B0CD15D
:103090007B685A6B7B683833104619460B22FEF763
:1030A00053FA0346002B00D10FE0FF237B777B68A8
:1030B0004FF0FF325A6478680021FFF7ADF80346FD
:1030C000FB77FB7F002B3FF462AFFB7F1846243772
:1030D000BD4690BD80B59EB000AF78607B681B6830
:1030E0007B667B6893F8433003F0A003002B01D08C
:1030F000062381E10023FB6602E0FB6E0133FB66E1
:103100007B6EDA68FB6E5B0013441B88002BF4D1E6
:103110007B6E1B78042B40F09580FB6E0E33B84A13
:10312000A2FB0323DB080233BB667868B96EFFF7A6
:1031300047F9034687F8773097F87730002B02D0AD
:1031400097F8773058E17B689A6ABB6E03F10063A9
:10315000013B5B01D21A7B685A647B689B68002B39
:1031600066D07B68DB7903F00403002B60D07B68BA
:10317000DB7903F00303DAB27B68DA717B68D3E9A9
:1031800004017B6E5B895B021A464FF00003121844
:1031900043EB01037968C1E904237B681846FEF715
:1031A000EDFD034687F8773097F87730002B02D093
:1031B00097F8773020E17B6807F10802104619463E
:1031C000FFF7A6FC034687F8773097F87730002B97
:1031D00002D097F877300FE17B6E1B6903F138015D
:1031E0007B68D3E904230846FEF7E4F87B6E1B698D
:1031F00003F128017B68D3E904230846FEF7DAF8D7
:103200007B6E1B6921337A68D27942F00102D2B217
:103210001A7007F108031846FFF7B6FC034687F853
:10322000773097F87730002B02D097F87730E3E0CB
:103230007B6E1A697B6EDB6810461946FFF7FEFC51
:103240000023D9E07B68383307F154021046194651
:103250000C22FEF73FF997F85F3003F00103002BD3
:1032600035D07B68402283F8432001233B671AE076
:103270007B6803F138017B6EDB6807F15402084676
:1032800011461A463B6FFFF771FA7868FFF7FEFDAB
:10329000034687F8773097F87730002B00D005E0A9
:1032A0003B6F01333B673B6F632BE1D93B6F642B73
:1032B00001D10723A0E097F87730042B02D097F8CC
:1032C000773099E097F85F207B6883F8432097F880
:1032D0005F3003F00203002B07D0FB6E0C33494A2A
:1032E000A2FB03239B08013300E00123BB6678683F
:1032F000B96EFFF765F8034687F8773097F87730AF
:10330000002B49D1BB6E013BBB66BB6E002B43D08B
:103310007B689A6ABB6E5B01D31A78681946FEF720
:10332000F5FE034687F8773097F87730002B33D1D6
:103330007B6838331846FFF7A7FA034687F86330EF
:103340007B681B6B786E1946FEF788F9034687F891
:10335000773097F87730002B00D01DE07B6ED8686F
:103360007B68596BBB6EDAB297F86330FFF798F958
:103370007B6E0122DA7078680021FEF74DFF03466C
:1033800087F8773097F87730002B05D1BB6E013B7B
:10339000BB66BB6E002BD3D197F87730002B29D1B9
:1033A0007B681B6B786E1946FEF758F9034687F861
:1033B000773097F87730002B1CD17B685B6B184611
:1033C00000212022FEF7A6F87B685A6B7B68383311
:1033D000104619460B22FEF77DF87B685B6B0C33B9
:1033E0007A6892F8432002F01802D2B21A707B6E0B
:1033F0000122DA7097F8773018467837BD4680BDDD
:10340000898888884FECC44E80B58AB000AF786058
:1034100039603B681B683B617B681B68DB68FB604D
:1034200000237B617B69BB61BB695A1CBA615B008D
:103430003A6913441B88BB84BB8C1F2B00D833E034
:10344000BB8C2F2B02D0BB8C5C2B12D102E0BB6952
:103450000133BB61BB695B003A6913441B882F2BA6
:10346000F5D0BB695B003A6913441B885C2BEED036
:103470001AE07B69FE2B01D9062365E1BB8C7F2B0B
:1034800009D8BB8CB2481946FEF786F80346002BD4
:1034900001D0062358E17B695A1C7A615B00FA6807
:1034A0001344BA8C1A80BFE7BB695B003A691A44BF
:1034B0003B681A60BB8C1F2B01D8042300E000235B
:1034C00087F8263012E07B6903F10043013B5B0083
:1034D000FA6813441B88BB84BB8C202B03D0BB8CA5
:1034E0002E2B00D005E07B69013B7B617B69002BC3
:1034F000E9D17B695B00FA68134400221A807B697A
:10350000002B01D106231FE17B68383318462021A8
:103510000B22FDF7FFFF0023BB6102E0BB69013313
:10352000BB61BB695B00FA6813441B88202BF5D094
:10353000BB695B00FA6813441B882E2BEED0BB6975
:10354000002B05D097F8263043F0030387F8263088
:1035500002E07B69013B7B617B69002B09D07B69C1
:1035600003F10043013B5B00FA6813441B882E2BD8
:10357000EFD1002387F8273000233B620823FB614B
:10358000BB695A1CBA615B00FA6813441B88BB8490
:10359000BB8C002B00D190E0BB8C202B06D0BB8CC9
:1035A0002E2B0AD1BA697B699A4206D097F8263049
:1035B00043F0030387F826307EE03A6AFB699A42BB
:1035C00003D2BA697B699A4224D1FB690B2B06D1DD
:1035D00097F8263043F0030387F826306DE0BA6988
:1035E0007B699A4205D097F8263043F0030387F8A9
:1035F0002630BA697B699A4200D95EE07B69BB617B
:1036000008233B620B23FB6197F827309B0087F868
:10361000273051E0BB8C7F2B14D9BB8C184600217E
:1036200001F0E4FA0346BB84BB8C002B04D0BB8CB6
:10363000803B484AD35CBB8497F8263043F00203B2
:1036400087F82630BB8C002B07D0BB8C424819462C
:10365000FDF7A2FF0346002B08D05F23BB8497F839
:10366000263043F0030387F826301BE0BB8C402B49
:1036700009D9BB8C5A2B06D897F8273043F00203A0
:1036800087F827300EE0BB8C602B0BD9BB8C7A2BD4
:1036900008D897F8273043F0010387F82730BB8C10
:1036A000203BBB843B6A5A1C3A62BA8CD1B27A681E
:1036B00013440A4683F8382062E77B6893F8383071
:1036C000E52B03D17B68052283F83820FB69082BA2
:1036D00004D197F827309B0087F8273097F82730D8
:1036E00003F00C030C2B05D097F8273003F00303ED
:1036F000032B05D197F8263043F0020387F82630D4
:1037000097F8263003F00203002B17D197F82730E3
:1037100003F00303012B05D197F8263043F0100383
:1037200087F8263097F8273003F00C03042B05D1D7
:1037300097F8263043F0080387F826307B6897F81F
:10374000262083F84320002318462837BD4680BD35
:10375000ECDE00005CDE0000F8DE000080B586B024
:1037600000AF786039607B683B613B691B68FB6038
:1037700002E03B6802333B603B681B882F2BF8D08C
:103780003B681B885C2BF4D03B6900229A603B6845
:103790001B881F2B0AD87B68802283F84320786817
:1037A0000021FEF7B3FC0346FB7575E03B467868E5
:1037B0001946FFF729FE0346FB75FB7D002B00D061
:1037C0006AE07868FFF762FB0346FB757B6893F855
:1037D0004330FB72FB7D002B0BD0FB7D042B07D10C
:1037E000FB7A03F00403002B02D10523FB7553E0A1
:1037F00052E0FB7A03F00403002B00D04CE03B695D
:103800009B7903F01003002B02D10523FB7543E0E5
:10381000FB681B78042B30D13B699A683B69DA61FD
:103820003B69D3E90423134623F0FF033A69D279B5
:103830001A433B691A627B685A6C3B695A62FB689F
:103840001B6934331846FDF793FC02463B699A60C6
:10385000FB681B6921331B7803F00203DAB23B6972
:10386000DA71FB681B6938331846FDF7A5FC024680
:103870000B463969C1E904230DE07B689B6AC3F3F9
:1038800008033833FA681344F8681946FEF7F4FD64
:1038900002463B699A6089E7FB7D18461837BD46AA
:1038A00080BD00BF80B487B000AF78604FF0FF33B9
:1038B0003B617B681B68002B31D07B681B687B6198
:1038C00002E07B6902337B617B691B881F2B03D974
:1038D0007B691B883A2BF4D17B691B883A2B1CD15E
:1038E0007B681B68FB60FB689A1CFA601B88303B96
:1038F000BB60BB68092B0ED8FA687B699A420AD173
:10390000BB68002B07D1BB683B617B6902337B61DD
:103910007B687A691A603B6902E000233B613B697E
:1039200018461C37BD465DF8047B704780B582B0F1
:1039300000AF786039607B680022DA707B684FF0F6
:10394000FF325A6378683968FDF788FE0346002B1A
:1039500001D0042341E07B6803F236231846FDF7CB
:10396000EFFB03461A464AF655239A4201D0032339
:1039700033E07B6893F83830E92B09D07B6893F803
:103980003830EB2B1CD17B6893F83A30902B17D151
:103990007B686E331846FDF7EBFB034623F07F434D
:1039A000104A934201D1002317E07B688A331846FE
:1039B000FDF7DEFB02460C4B9A4201D100230CE0DE
:1039C0007B683833184609490B22FDF7BDFD0346D5
:1039D000002B01D1012300E0022318460837BD4621
:1039E00080BD00BF464154004641543300DF000013
:1039F00080B598B000AFF860B9601346FB71BB6842
:103A000000221A60F868FFF74DFF78647B6C002B8A
:103A100001DA0B2314E3AF4A7B6C52F823303B648A
:103A20003B6C002B01D10C230AE3BB683A6C1A6093
:103A3000FB7923F00103FB713B6C1B78002B1AD040
:103A40003B6C5B781846FDF70DF8034687F83F306E
:103A500097F83F3003F00103002B0CD1FB79002BCA
:103A600007D097F83F3003F00403002B01D00A235E
:103A7000E6E20023E4E23B6C00221A707B6CDAB2CF
:103A80003B6C5A703B6C5B781846FCF7FFFF0346B3
:103A900087F83F3097F83F3003F00103002B01D047
:103AA0000323CDE2FB79002B07D097F83F3003F0DA
:103AB0000403002B01D00A23C2E20023BB65386C4B
:103AC000B96DFFF733FF034687F85F3097F85F3033
:103AD000022B4AD10023BB641EE0BB6C1B0103F523
:103AE000DF7338333A6C1344BB63BB6B04331B780E
:103AF000002B06D0BB6B08331846FDF739FB024696
:103B000000E00022BB6C9B0007F160010B4443F80E
:103B10004C2CBB6C0133BB64BB6C032BDDD9002385
:103B2000BB64BB6C002B02D0BB6C013BBB64BB6CA9
:103B30009B0007F16002134453F84C3CBB65BB6D1E
:103B4000002B05D0386CB96DFFF7F0FE034600E09E
:103B5000032387F85F3097F85F30012B05D9BB6CE2
:103B60000133BB64BB6C032BE1D997F85F30042BA6
:103B700001D1012364E297F85F30012B01D90D23B5
:103B80005EE297F85F30012B40F0EF800B23BB64BF
:103B900002E0BB6C0133BB64BB6C3F2B06D83A6CB4
:103BA000BB6C134438331B78002BF2D0BB6C3F2B1B
:103BB00001D80D2344E23B6CA0331846FDF7C0FA50
:103BC0000346B3F5807F01D00D2339E23B6C93F8B7
:103BD000A4301A4601239340B3F5007F01D00D2392
:103BE0002EE23B6C80331846FDF7E6FABB6D1A46B1
:103BF0004FF00003121843EB0103C7E90C23D7E988
:103C00000C23012B08BF002A01D30D2318E23B6CC3
:103C10008C331846FDF7ACFA02463B6C1A623B6CDB
:103C200093F8A6203B6C9A703B6C9B78012B01D0DB
:103C30000D2305E23B6C93F8A5301A46012393400F
:103C40009AB23B6C5A813B6C5B89002B01D10D23EE
:103C5000F6E13B6C94331846FDF78AFAF862FB6A8A
:103C60001D4A934201D90D23EAE1FB6A9A1C3B6C81
:103C7000DA613B6CBA6D5A623B6C90331846FDF7C3
:103C800077FA0246BB6D1A443B6C1A633B6C88336F
:103C90001846FDF76DFA0246BB6D1A443B6C9A62FA
:103CA0003B6C1B6B18464FF000013B6C5B891A465E
:103CB000FB6A03FB02F31A464FF00003121843EBB2
:103CC0000103D7E90C01994208BF904206D20D23A7
:103CD000B6E100BF44040020FDFFFF7F3B6C98333A
:103CE0001846FDF745FA02463B6CDA623B6CDB6A2C
:103CF000386C1946FDF74EFD0346386C1946FDF742
:103D0000ADFC0346002B01D0012399E10023BB64E5
:103D100015E03A6CBB6C134438331B78812B0BD104
:103D2000BB6C143338333A6C13441846FDF720FA51
:103D30000346022B00D106E0BB6C2033BB64BB6C96
:103D4000B3F5007FE5D3BB6CB3F5007F01D10D2344
:103D500076E13B6C4FF0FF329A613B6C9A693B6CA9
:103D60005A61042387F85F3055E13B6C43331846B2
:103D7000FDF7E6F90346B3F5007F01D00D235FE1BF
:103D80003B6C4E331846FDF7DBF903467B657B6DD4
:103D9000002B05D13B6C5C331846FDF7E9F97865DB
:103DA0003B6C7A6D1A623B6C93F848203B6C9A70BE
:103DB0003B6C9B78012B05D03B6C9B78022B01D090
:103DC0000D233DE13B6C9B781A467B6D02FB03F3B0
:103DD0007B653B6C93F845309AB23B6C5A813B6CE7
:103DE0005B89002B08D03B6C5B891A463B6C5B8976
:103DF000013B1340002B01D00D2321E13B6C4933E3
:103E00001846FDF79DF903461A463B6C1A813B6C38
:103E10001B8903F00F039BB2002B01D00D230FE190
:103E20003B6C4B331846FDF78BF903463B653B6D06
:103E3000002B05D13B6C58331846FDF799F93865CE
:103E40003B6C46331846FDF77BF903467B857B8D3B
:103E5000002B01D10D23F3E07A8D7B6D13443A6C76
:103E60001289120992B213447B623A6D7B6A9A42BC
:103E700001D20D23E4E03A6D7B6AD31A3A6C528981
:103E8000B3FBF2F3FB62FB6A002B01D10D23D7E0F9
:103E9000032387F85F30FB6A4FF6F572934202D82E
:103EA000022387F85F30FB6A40F6F572934202D82E
:103EB000012387F85F30FB6A9A1C3B6CDA613B6C2C
:103EC000BA6D5A627A8DBB6D1A443B6C9A62BA6DB8
:103ED0007B6A1A443B6C1A6397F85F30032B1CD142
:103EE0003B6C62331846FDF72BF90346002B01D0DB
:103EF0000D23A5E03B6C1B89002B01D00D239FE017
:103F00003B6C64331846FDF733F902463B6CDA62CA
:103F10003B6CDB699B00FB641FE03B6C1B89002B47
:103F200001D10D238CE03B6C9A6A7B6D1A443B6C8B
:103F3000DA6297F85F30022B03D13B6CDB695B00E0
:103F40000AE03B6CDA6913465B0013445A083B6C89
:103F5000DB6903F001031344FB643B6C1A6AFB6CDE
:103F600003F2FF135B0A9A4201D20D2368E03B6C17
:103F70004FF0FF329A613B6C9A693B6C5A613B6C23
:103F800080221A7197F85F30032B44D13B6C683361
:103F90001846FDF7D5F80346012B3CD1BB6D013324
:103FA000386C1946FDF75AFB0346002B33D13B6CA6
:103FB00000221A713B6C03F236231846FDF7C0F855
:103FC00003461A464AF655239A4224D13B6C3833AD
:103FD0001846FDF7CDF802461B4B9A421BD13B6CAD
:103FE00003F507731846FDF7C3F80246174B9A42CC
:103FF00011D13B6C03F508731846FDF7B9F802467A
:104000003B6C9A613B6C03F509731846FDF7B0F8F9
:1040100002463B6C5A613B6C97F85F201A700C4B60
:104020001B8801339AB20A4B1A80094B1A883B6CE1
:10403000DA803B6C074ADA603B6C074A1A6100235E
:1040400018466037BD4680BD52526141727241616F
:1040500048040020AC0600204C04002080B584B049
:1040600000AF786039607B68002B1AD07B681B68D2
:10407000002B16D07B681B681B78002B11D07B6847
:104080001B68DA887B689B889A420AD17B681B6828
:104090005B781846FCF7E6FC034603F00103002BAF
:1040A00005D03B6800221A600923FB7305E07B689A
:1040B0001A683B681A600023FB73FB7B18461037B5
:1040C000BD4680BD80B588B000AFF860B9601346CA
:1040D000FB71BB683B6107F110031846FFF7E2FB79
:1040E000F861FB69002B01DA0B232FE0194AFB6909
:1040F00052F82330BB61BB69002B02D0BB690022A0
:104100001A70FB68002B03D0FB6800221A7004E0D1
:104110000020FF210022FCF77DFEFA680D49FB69B3
:1041200041F82320FB68002B02D0FB79012B01D042
:1041300000230BE007F1080207F10C0310461946B3
:104140000022FFF755FC0346FB75FB7D1846203720
:10415000BD4680BD44040020B0B5A0B000AFF860FB
:10416000B9601346FB71FB68002B01D109235DE2A6
:10417000FB7903F03F03FB7107F1080107F114021B
:10418000FB79084611461A46FFF732FC034687F8CA
:104190007F3097F87F30002B40F03F827B69BB6116
:1041A000BB6807F1180210461946FFF7D7FA034615
:1041B00087F87F3097F87F30002B08D197F85B3075
:1041C000DBB25BB2002B02DA062387F87F30FB7983
:1041D00003F01C03002B00F0FE8097F87F30002BCB
:1041E00010D097F87F30042B07D107F11803184639
:1041F000FEF770FF034687F87F30FB7943F0080332
:10420000FB7110E0BB7F03F01103002B03D00723E9
:1042100087F87F3007E0FB7903F00403002B02D01E
:10422000082387F87F3097F87F30002B40F0ED802F
:10423000FB7903F00803002B00F0E78004F054F949
:10424000F8667B691B78042B7DD17A69FB681A605C
:104250007B691B6934331846FCF78AFF0246FB680A
:104260009A607B691B6938331846FCF7A5FF024644
:104270000B46F968C1E904237B691B6921331B786C
:1042800003F00203DAB2FB68DA717B691B69083359
:104290001846F96EFDF762F87B691B69143300223A
:1042A0001A707B691B690C331846F96EFDF756F8D6
:1042B0007B691B69153300221A707B691B69043303
:1042C00020221A707B691B69343318460021FDF7E0
:1042D00045F87B691B69383318464FF000024FF0F0
:1042E0000003FDF767F87B691B69283318464FF018
:1042F00000024FF00003FDF75DF87B691B69213375
:1043000001221A7007F118031846FEF73DFC034618
:1043100087F87F3097F87F30002B76D1FB689B6859
:10432000002B72D0FA68FB689B6810461946002281
:10433000FDF754FD034687F87F307B69FA68926881
:10434000013A5A6161E0FB6C0E331846F96EFDF7D5
:1043500005F8FB6C16331846F96EFCF7FFFFFB6C93
:104360000B3320221A707A69FB6C10461946FEF74F
:1043700083F8B8667A69FB6C104619460022FEF78E
:104380009BF8FB6C1C3318460021FCF7E7FF7B69A8
:104390000122DA70BB6E002B37D07B695B6BFB664A
:1043A00007F118031846B96E0022FDF717FD034602
:1043B00087F87F3097F87F30002B26D17B6918462D
:1043C000F96EFDF74BF9034687F87F307B69BA6ECB
:1043D000013A5A6119E097F87F30002B15D1BB7F65
:1043E00003F01003002B03D0042387F87F300CE088
:1043F000FB7903F00203002B07D0BB7F03F001031E
:10440000002B02D0072387F87F3097F87F30002BEE
:104410000FD1FB7903F00803002B03D0FB7943F0A5
:104420004003FB717B695A6BFB681A64FA6CFB688A
:104430005A6497F87F30002B40F0EF807B691B783F
:10444000042B2CD17B691B6934331846FCF790FE92
:104450000246FB689A607B691B6938331846FCF793
:10446000ABFE02460B46F968C1E904237B691B6970
:1044700021331B7803F00203DAB2FB68DA713A6A7F
:10448000FB68DA61D7E90A23134623F0FF03FA7FBA
:104490001A43FB681A62FA6DFB685A6214E07A6983
:1044A000FB6C10461946FDF7E7FF0246FB689A6071
:1044B000FB6C1C331846FCF75BFE03461A464FF0B4
:1044C0000003F968C1E904237A69FB681A607B6913
:1044D000DA88FB689A80FB68FA7983F82820FB6801
:1044E000002283F82920FB680022DA63F9684FF084
:1044F00000024FF00003C1E90C23FB684833184663
:1045000000214FF40072FDF705F8FB7903F020035A
:10451000002B00F08280FB68D3E9042313437CD096
:10452000FB68D3E90423F968C1E90C237B695B8943
:104530005B027B66FB689B68BB67FB68D3E904236F
:10454000C7E91C231DE0FB681846B96FFDF742F967
:10455000B867BB6F012B02D8022387F87F30BB6F8F
:10456000B3F1FF3F02D1012387F87F307B6E1A46FB
:104570004FF00003D7E91C01821A61EB0303C7E97E
:104580001C2397F87F30002B09D17B6E18464FF023
:104590000001D7E91C23994208BF9042D3D3FB689E
:1045A000BA6F9A6397F87F30002B36D1D7E91C2376
:1045B00040F2FF104FF0000102EA000203EA01039B
:1045C00013432AD07B691846B96FFDF7E3F83866C4
:1045D0003B6E002B03D1022387F87F301DE0D7E923
:1045E0001C23540A44EAC3545D0A22463B6E1A4413
:1045F000FB68DA637B695978FB6803F14802FB6862
:10460000DB6B084611461A460123FCF725FB0346DF
:10461000002B02D0012387F87F3097F87F30002BE2
:1046200002D0FB6800221A6097F87F301846803766
:10463000BD46B0BDB0B58CB000AFF860B9607A606F
:104640003B60BB68FB613B6800221A60FA6807F1B7
:10465000100310461946FFF701FD034687F82F3077
:1046600097F82F30002B08D1FB6893F8293087F892
:104670002F3097F82F30002B02D097F82F307DE1A4
:10468000FB6893F8283003F00203002B01D10723C5
:1046900074E13B691B78042B10D0FB68D3E90C2331
:1046A0007B68D118FB68D3E90C231346994205D2E5
:1046B000FB68D3E90C231346DB437B6050E1FB68C6
:1046C000D3E90C2340F2FF104FF0000102EA000290
:1046D00003EA0103134340F0F380FB68D3E90C23A2
:1046E000540A44EAC3545D0A22463B695B89013B94
:1046F0001340BB61BB69002B3AD1FB68D3E90C23A3
:1047000013430CD1FB689B68BB62BB6A002B0ED1C4
:10471000FB6818460021FDF715FCB86207E0FA684F
:10472000FB689B6B10461946FDF70CFCB862BB6A30
:10473000002B00D118E1BB6A012B05D1FB680222D6
:1047400083F82920022319E1BB6AB3F1FF3F05D1A9
:10475000FB68012283F8292001230FE1FB68BA6A74
:104760009A63FB689B68002B02D1FB68BA6A9A6067
:10477000FB6893F82830DBB25BB2002B1EDA3B6992
:104780005978FB6803F14802FB68DB6B0846114669
:104790001A460123FCF7C4FA0346002B05D0FB6838
:1047A000012283F829200123E8E0FB6893F82830F0
:1047B00003F07F03DAB2FB6883F828203A69FB68CC
:1047C0009B6B10461946FCF7E5FF78617B69002B6F
:1047D00005D1FB68022283F829200223CEE07A6902
:1047E000BB6913447B617B685B0A3B623B6A002BBD
:1047F00041D0BA693B6A13443A695289934205D958
:104800003B695B891A46BB69D31A3B623B695B789B
:104810001846F9697A693B6AFCF782FA0346002B6D
:1048200005D0FB68012283F829200123A6E0FB685C
:10483000DA6B7B69D21A3B6A9A4218D2FB6803F1A1
:104840004801FB68DA6B7B69D31A5B02FA6913448F
:10485000084619464FF40072FCF73CFEFB6893F8DB
:10486000283003F07F03DAB2FB6883F828203B6A24
:104870005B027B624AE0FB68DA6B7B699A421CD080
:10488000FB68D3E90C01FB68D3E90423994208BF14
:10489000904212D23B695A78FB6848331046194659
:1048A0007A690123FCF7D8F90346002B05D0FB6891
:1048B000012283F82920012360E0FB687A69DA632A
:1048C000FB68D3E90C231346C3F30803C3F5007355
:1048D0007B627A6A7B689A4201D97B687B62FB685B
:1048E000D3E90C231346C3F308034833FA6813448F
:1048F0001846F9697A6AFCF7EDFDFB6893F82830F1
:1049000063F07F03DAB2FB6883F82820FA697B6AD8
:104910001344FB61FB68D3E90C017B6A1A464FF034
:104920000003121843EB0103F968C1E90C23FB688B
:10493000D3E90423F968D1E90C018B4208BF824214
:1049400001D202460B46F968C1E904233B681A68A4
:104950007B6A1A443B681A607A687B6AD31A7B6068
:104960007B68002B7FF4ABAEFB6893F8283043F0F4
:104970004003DAB2FB6883F828200023184630375A
:10498000BD46B0BD80B598B000AF78607A6807F1D9
:10499000500310461946FFF761FB034687F85F3066
:1049A00097F85F30002B40F0FB807B6893F828304D
:1049B00003F04003002B00F0F3807B6893F828306D
:1049C000DBB25BB2002B1ADA3B6D59787B6803F1DE
:1049D00048027B68DB6B084611461A460123FCF748
:1049E0009FF90346002B01D00123DBE07B6893F89D
:1049F000283003F07F03DAB27B6883F8282003F0C5
:104A000073FDB8653B6D1B78042B7CD17B68184621
:104A1000FDF7B4F9034687F85F3097F85F30002B55
:104A200040F0BE807B6807F1080210461946FEF789
:104A30006FF8034687F85F3097F85F30002B61D13D
:104A40003B6D1B6904333A6D12690432127842F0EF
:104A50002002D2B21A703B6D1B6921337A68D27979
:104A600042F00102D2B21A703B6D1B6903F13402AD
:104A70007B689B6810461946FCF770FC3B6D1B6910
:104A800003F138017B68D3E904230846FCF792FC64
:104A90003B6D1B6903F128017B68D3E904230846B9
:104AA000FCF788FC3B6D1B690C331846B96DFCF7AD
:104AB00055FC3B6D1B69153300221A703B6D1B6959
:104AC000103318460021FCF749FC07F1080318468B
:104AD000FEF75AF8034687F85F3097F85F30002BEF
:104AE00010D13B6D1846FCF7E7FD034687F85F30B1
:104AF0007B6893F8283023F04003DAB27B6883F8B0
:104B000028204DE04CE03A6D7B681B6C104619463E
:104B1000FCF7A4FD034687F85F3097F85F30002B61
:104B20003ED17B685B6C7B657B6D0B337A6D0B32A2
:104B3000127842F02002D2B21A707B681A687B6841
:104B40009B681046796D1A46FDF7B6FC7B6D03F144
:104B50001C017B68D3E90423134608461946FCF779
:104B6000FDFB7B6D16331846B96DFCF7F7FB7B6DCB
:104B7000123318460021FCF7D7FB3B6D0122DA7097
:104B80003B6D1846FCF798FD034687F85F307B685D
:104B900093F8283023F04003DAB27B6883F82820AA
:104BA00097F85F3018466037BD4680BD80B584B049
:104BB00000AF78607868FFF7E5FE0346FB73FB7B88
:104BC000002B0ED17A6807F1080310461946FFF74B
:104BD00045FA0346FB73FB7B002B02D17B68002266
:104BE0001A60FB7B18461037BD4680BD80B485B087
:104BF00000AF03463960FB80FB887F2B02D8FB881F
:104C0000FB8124E03B68002B0BD0FB88FF2B05D8F1
:104C1000FB88803B114A32F8133000E00023FB810F
:104C200015E00023FB810AE0FB890C4A32F81330BF
:104C3000FA889A4200D105E0FB890133FB81FB89A8
:104C40007F2BF1D9FB8980339BB2DBB2FB81FB89DF
:104C500018461437BD465DF8047B70470CDF000032
:104C600080B487B000AF0346FB80FB88B3F5805F5C
:104C700001D23E4B00E03E4B7B617B699A1C7A611E
:104C80001B887B827B8A002B68D0FA887B8A9A42B9
:104C900064D37B699A1C7A611B883B823B8A1B0A1E
:104CA000FB813B8ADBB23B82FA88798A3B8A0B44E0
:104CB0009A4249DAFB89082B4FD801A252F823F017
:104CC000E54C0000F74C00000D4D0000154D0000B4
:104CD0001D4D0000254D00002D4D0000354D0000FC
:104CE0003D4D0000FA887B8AD31A5B007A69134431
:104CF0001B88FB8027E0FA887B8AD31A9BB203F0DB
:104D000001039BB2FA88D31AFB801CE0FB88103B9E
:104D1000FB8018E0FB88203BFB8014E0FB88303BE5
:104D2000FB8010E0FB881A3BFB800CE0FB8808331B
:104D3000FB8008E0FB88503BFB8004E0FB88A3F588
:104D4000E353FB8000BF08E0FB89002B04D13B8AC2
:104D50005B007A6913447B618FE700BFFB881846CC
:104D60001C37BD465DF8047B704700BF0CE00000B7
:104D700000E2000080B483B000AF03463960FB71ED
:104D800097F90730002B0BDA0D49FB7903F00F037D
:104D9000043B3A68D2B25201D2B20B441A7609E00F
:104DA000084997F907303A68D2B25201D2B20B449F
:104DB00083F800230C37BD465DF8047B704700BFC5
:104DC00000ED00E000E100E080B584B000AF786065
:104DD0003960254B1B7883F00103DBB2002B01D037
:104DE000224B3DE07B68002B01D1214B38E001F0E4
:104DF000CBF8B8600023FB602BE01E49FA6813462D
:104E00009B0013449B000B4410331B7883F0010379
:104E1000DBB2002B1AD0FA687B681A601549FA6871
:104E200013469B0013449B000B44103301221A705D
:104E30001049FA6813469B0013449B000B44002260
:104E40001A60B86801F0B0F8002309E0FB6801338C
:104E5000FB60FB680B2BD0DDB86801F0A5F8064BB2
:104E600018461037BD4680BDAC080020028000F017
:104E7000018000F0B0080020048000F080B584B00C
:104E800000AF7860194B1B7883F00103DBB2002B75
:104E900001D0174B25E07B680B2B01D9154B20E087
:104EA00001F072F8F86014497A6813469B001344C5
:104EB0009B000B4410331B78002B0ED00E497A68F0
:104EC00013469B0013449B000B44103300221A70BE
:104ED000F86801F069F8002303E0F86801F064F86D
:104EE000064B18461037BD4680BD00BFAC080020F9
:104EF000028000F0018000F0B0080020068000F081
:104F000080B584B000AF01F03FF8B860194B1B7852
:104F1000002B04D0B86801F047F8174B25E0154B7B
:104F200001221A70B86801F03FF80023FB600CE022
:104F30001249FA6813469B0013449B000B4410333C
:104F400000221A70FB680133FB60FB680B2BEFDD5E
:104F500000200421FFF70EFF00233B70084B7B600D
:104F60003B46184601F0BCF9002318461037BD46F1
:104F700080BD00BFAC080020038000F0B008002016
:104F8000000B002080B489B000AF78600B46FB7046
:104F90001346BB70BB78002B04D010237B61444BBD
:104FA000BB6103E000237B61424BBB617B685A6BB2
:104FB000BB6913403B610023FB617B683E4A93421F
:104FC00016D13E4BFB60FB78062B61D801A252F84C
:104FD00023F000BFF34F00001150000035500000D7
:104FE0005750000091500000915000007F50000089
:104FF00058E0FB681B6803F4FE43FA691343FB6146
:10500000FB681B6803F07F03FA691343FB6142E00E
:10501000FB681B6803F0FE431B0E1B02FA69134377
:10502000FB61FB681B6803F4FE031B0CFA69134366
:10503000FB6130E0FB6804331B6803F4FE43FA694C
:105040001343FB61FB6804331B6803F07F03FA69B9
:105050001343FB611FE0FB6804331B6803F0FE434E
:105060001B0E1B02FA691343FB61FB6804331B68C8
:1050700003F4FE031B0CFA691343FB610BE0FB68AE
:1050800008331B6803F07F03FA691343FB6102E0F6
:105090000023FB6100BF7B69FA699A403B691A43B0
:1050A0007B685A632437BD465DF8047B704700BFB8
:1050B000FFFF80808080FFFF00200040B481E00F70
:1050C00080B584B000AF786039603B681B79FB72B3
:1050D000FB7A002B06D11B48002100F083F8034621
:1050E000FB7208E01748002100F07CF84FF4FA400A
:1050F000002100F077F87B680A225A603B681B7831
:105100001A063B68DB781B0403F4FE031A43FB7AA0
:105110001B0203F4FE431A433B685B781B011343F5
:105120003A6892781343FB603B685B79002B03D0AD
:10513000FB6843F00803FB607B68FA681A6010376D
:10514000BD4680BD405DC60080B584B000AF7860CC
:1051500039607B6802225A603B689B787868194600
:105160000022FFF70FFF3B681B781A073B685B784C
:105170001B051A433B681B791B0213431A463B6805
:10518000DB781B011343FB603B689B79002B03D04A
:10519000FB6843F08073FB603B68DB79002B03D036
:1051A000FB6843F00403FB603B685B79002B03D092
:1051B000FB6843F00203FB603B681B7A002B03D0C3
:1051C000FB6843F00103FB603B689B781B041A46B5
:1051D000FB681343FB607B68FA68DA601037BD46F2
:1051E00080BD00BF80B584B000AF786039607B6857
:1051F000134A934202D9124B7B6006E07B68B3F5F9
:10520000FA4F02D24FF4FA437B603B68002B03D184
:105210000C4800F0D5FB38603A687B6813445A1E8E
:105220007B68B2FBF3F3FB60FB68002B02D0FB68EA
:10523000013BFB60FB68DBB218461037BD4680BD02
:10524000405DC6004081040080B582B000AF786048
:105250007B68002B08D1114800F0B2FB78607B68B6
:10526000002B01D101237B607B680D4A934201D959
:105270000B4B7B607B6803F5742303F23F237B6059
:105280007B68084AA2FB03239B0C7B607B68DBB234
:10529000013BDBB218460837BD4680BD40810400A3
:1052A0000048E80183DE1B4380B487B000AFF8609C
:1052B000B9607A60FB6803F10473DA00BB681344D9
:1052C0009B007B617B697A681A601C37BD465DF87C
:1052D000047B704780B485B000AF786039607B682C
:1052E00003F10473DA003B6813449B00FB60FB6826
:1052F0001B6818461437BD465DF8047B704700BF35
:1053000080B485B000AF78607B68002B04D07B68E8
:10531000B3F5004F00D800BF7B68B3FA83F3C3F145
:105320001F03FB60FB6818461437BD465DF8047B1D
:10533000704700BF80B400AF044BDB6C1B0EDBB2C8
:105340001846BD465DF8047B704700BFB081E00F92
:1053500080B584B000AF78600123FB607B68114AA0
:10536000934204D80023FB600023BB6008E07B6805
:105370000D4A934202D80123BB6001E00223BB60C7
:105380000A481E21FA68FFF78FFF0849074B5B6840
:1053900023F48072BB681B0213434B601037BD4679
:1053A00080BD00BF00366E01006CDC0200800C4046
:1053B00080B582B000AF05481E21FFF78BFF7860F3
:1053C0007B6818460837BD4680BD00BF00800C4092
:1053D00080B582B000AF214B5B6903F4E063B3F5A5
:1053E000007F1CD0B3F5007F05D8002B25D0B3F586
:1053F000807F1FD02AE0B3F5C06F24D0B3F5E06FF3
:105400001ED0B3F5407F21D1FFF794FF0346122B46
:1054100002D9134B7B601CE0124B7B6019E0FFF755
:1054200089FF0346122B02D90F4B7B6011E00F4B13
:105430007B600EE00E4B7B600BE00E4B7B6008E068
:105440000D4B7B6005E00D4B7B6002E000237B6031
:1054500000BF7B6818460837BD4680BD00800C4001
:10546000804F120040420F0040B56400C0CF6A0078
:10547000C0D8A700809FD500406F4001003FAB011E
:1054800080B582B000AF0D4800F07EFB0346FB7094
:10549000FB78072B05D0092B07D1FAF7D3FE7860EC
:1054A00006E0FFF795FF786002E000237B6000BF15
:1054B0007B6818460837BD4680BD00BF06000C005B
:1054C00080B485B000AF78603960284BDB6B002B6F
:1054D00014BF01230023BB72244B41F67132DA63FF
:1054E000224B5B6803F00703FB60FB68012B01D9CB
:1054F000042B02D10023FB7202E00123FB7200BFE8
:105500007B681B4A934207D9FB7A002B01D0052305
:1055100000E00423FB6016E07B68154A93420BD839
:105520007B68144A934207D9FB7A002B01D00323EE
:1055300000E00123FB6006E0FB7A002B01D0022390
:1055400000E00023FB600949084B5B6823F0070279
:10555000FB6813434B60BB7A002B02D0034B002245
:10556000DA631437BD465DF8047B704700000C40D9
:105570000048E8010024F40080B500AFFAF758FEB7
:10558000034618460021FFF79BFF80BD80B582B01F
:1055900000AF7860396078683968FFF791FF0837A5
:1055A000BD4680BD90B585B000AF78600023BB607C
:1055B0007B68344A934203D0334A934200D000E0E0
:1055C00000BF786800F0E0FA0346FB607B682D4A74
:1055D000934203D02C4A934206D00CE02B4B9B6A9B
:1055E00003F00303FB6006E0284B9B6A03F00C0307
:1055F0009B08FB6000BFFB68032B3AD801A252F85E
:1056000023F000BF3B560000155600001D56000059
:1056100025560000FAF7B2FEB8602DE0FAF7C2FE98
:10562000B86029E0FAF7EAFD0446FFF7C1FE034639
:10563000013324FA03F3BB601EE00023BB607B68E8
:10564000104A934203D07B680F4A934210D10F4B0C
:105650009A6A7B680B498B4201D1102300E0142326
:1056600022FA03F3002B03D0FAF792FEB86003E0AE
:1056700002E00023BB6000BFBB6818461437BD467C
:1056800090BD00BF02001A0003001C0000800C4007
:1056900080B483B000AF7860094B5B6D03F0010309
:1056A000002B00D006E000BF054B1A6D7B6813404D
:1056B000002BF9D10C37BD465DF8047B704700BF65
:1056C00000800C40B0B584B000AF786039607B6872
:1056D0001B0903F00F03FB60FB68013B062B00F284
:1056E000F48001A252F823F005570000CB580000C7
:1056F000CB5800003B57000065570000B35700002F
:10570000775800003B68002B03D03B68082B00D87B
:1057100000BFFFF731FF6F496E4B1B6823F4E03287
:105720003B68013B9B0313430B60FAF767FDB860CE
:10573000B8680021FFF72AFFC8E03B68002B04D0BF
:105740003B68B3F5007F00D800BF3868FFF7D8FD8D
:10575000386060495F4B9B6823F00F023B6813433E
:105760008B60B3E03B68002B04D03B68B3F5007F4F
:1057700000D800BFFFF700FFFAF764FD02463B6860
:10578000B2FBF3F31846FFF7E3FD3868FFF7B8FD07
:10579000386050494F4B5B6823F00F023B6813435E
:1057A0004B60FAF72BFDB860B8680021FFF7EEFEFA
:1057B0008CE07B68484A93421ED0474A934203D804
:1057C000464A934207D055E0454A934225D0454A80
:1057D00093423FD04EE00420FFF75AFF3868FFF7AE
:1057E0008FFD38603B493B4B9B6E23F0F0023B68DA
:1057F0001B0113438B663DE00420FFF749FF386827
:10580000FFF77EFD38603349324B9B6E23F47062A4
:105810003B681B0213438B662CE03B680F2B03D9BC
:105820003B68802B00D800BF0420FFF731FF3868A9
:10583000FFF766FD3860274D264B9B6E23F44054DE
:105840001020FFF75DFD02463B689B1A1B032343B4
:10585000AB660FE00420FFF71BFF3868FFF750FD31
:1058600038601C491B4B9B6E23F003023B681343BB
:105870008B6600BF2AE07B681B4A934203D01B4A19
:10588000934210D020E04020FFF702FF3868FFF776
:1058900037FD38600F490F4B1B6F23F003023B6845
:1058A00013430B6710E04020FFF7F2FE3868FFF764
:1058B00027FD38600749074B1B6F23F030023B6818
:1058C0001B0113430B6700BF00E000BF1037BD464C
:1058D000B0BD00BF00800C406026140060161000B0
:1058E0006000260060062A00700716007017180076
:1058F00080B586B000AF78600B46FB7000233B613B
:105900007B681B0A03F00F03013B092B45D801A25A
:1059100052F823F051590000575900003D5900003A
:105920009B5900009B5900005D5900006759000019
:105930009B5900009B59000071590000194B7B6175
:10594000194800F03DF803461846FFF701FD12E044
:10595000164B7B610FE0164B7B610CE0154B7B61B6
:1059600001233B6107E0144B7B6110233B6102E0A4
:10597000124B7B6100BF7B681B0B03F01F03FB60B6
:105980003B69002B02D03869FFF782FEFB7878690B
:10599000F9681A46FFF788FC00E000BF1837BD46DB
:1059A00080BD00BF40800C400043020008800C40D6
:1059B00044800C4058800C4060800C4078800C4043
:1059C00090B585B000AF78607B6803F47813B3F5C9
:1059D000A01F5DD0B3F5A01F17D8B3F5802F34D02A
:1059E000B3F5802F05D8002B2BD0B3F5003F38D06E
:1059F000BBE0B3F5602F00F0B480B3F5801F39D061
:105A0000B3F5402F00F0A980AFE0B3F5E01F00F040
:105A10008480B3F5E01F0AD8B3F5C01F00F08F8073
:105A2000B3F5D01F21D0B3F5B01F7BD09DE0B3F507
:105A3000201F4ED0B3F5281F62D0B3F5181F35D004
:105A400093E0FAF7FFFBF86092E0FAF7FBFBF860EF
:105A50004A4B9B6803F00F031A46FB68D340FB6078
:105A600086E0FAF7CBFBF86082E04548FFF79AFD45
:105A7000F8607DE04248FFF795FDF8603F4B9B6E74
:105A800003F0F0031B091A46FB68D340FB606FE08C
:105A90003B48FFF787FDF860384B9B6E03F470635B
:105AA0001B0A1A46FB68D340FB6061E03448FFF7ED
:105AB00079FDF860314B9B6E03F440531C0B1020B2
:105AC000FFF71EFC034623441A46FB68D340FB60E5
:105AD0004EE02B48FFF766FDF860284B9B6E03F401
