:1000000000800020B1010000DD010000DD010000E2
:10001000DD010000DD010000DD010000DD01000068
:10002000DD010000DD010000DD010000DD01000058
:10003000DD010000DD010000DD010000DD01000048
:1000400069580000DD010000DD010000DD01000055
:10005000DD010000DD010000DD0100009508000069
:10006000DD010000DD010000DD010000BD6B0000CE
:10007000DD010000DD01000071600000DD01000015
:1000800031700000DD010000DD010000DD01000035
:10009000DD010000DD010000DD010000DD010000E8
:1000A0001D540000DD010000DD010000DD01000045
:1000B000DD010000DD010000710A0000DD0100002B
:1000C00071550000DD010000DD010000DD010000D0
:1000D000DD010000DD010000DD010000DD010000A8
:1000E00010B5054C237833B9044B13B10448AFF372
:1000F00000800123237010BD0004002000000000D8
:100100006CB50000084B10B51BB108480849AFF3A7
:1001100000800848036803B910BD074B002BFBD0D3
:10012000BDE81040184700BF000000006CB500009B
:10013000040400200C03002000000000154B002BDD
:1001400008BF134B9D46A3F5803A00218B460F460E
:100150001348144A121A08F035FC0F4B002B00D03C
:1001600098470E4B002B00D0984700200021040038
:100170000D000D48002802D00C48AFF3008008F0B5
:1001800005FB2000290007F0E1F808F055FA00BF50
:1001900000000800008000200000000000000000B7
:1001A00000040020980F0020000000000000000064
:1001B000064880470649074A074B9A42BEBF51F896
:1001C000040B42F8040BF8E7FFF7B8FF5D030000EB
:1001D000A0B500000000002010030020FEE700BFD3
:1001E00080B400AF044BDB6C1B0EDBB21846BD467F
:1001F0005DF8047B704700BFB081E00F80B582B02E
:1002000000AF00F01FF87860074B5B6803F00F0346
:100210001A467B68D3407B60044A7B6813607B6826
:1002200018460837BD4680BD00800C4008000020FD
:1002300080B400AF024B1846BD465DF8047B7047A2
:10024000005A620280B582B000AF334BDB6A03F420
:100250007053B3F5805F0AD0B3F5005F03D0B3F5F8
:10026000006F08D00BE02D4B1B687B6047E04FF41C
:1002700000437B6043E02A4B1B687B603FE0264BDA
:10028000DB6803F4E063B3F5007F1BD0B3F5007FB8
:1002900005D8002B24D0B3F5807F16D02BE0B3F522
:1002A000806F09D0B3F5A06F03D0B3F5407F06D0BF
:1002B00021E01C4B7B6021E01B4B7B601EE01B4B55
:1002C0007B601BE01A4B7B6018E0FFF789FF034659
:1002D000122B02D9174B7B6010E0174B7B600DE0AF
:1002E000FFF77EFF0346122B02D9144B7B6005E01B
:1002F000134B7B6002E000237B6000BF00BF064B16
:100300001B6803F4E0339B0B01337A68B2FBF3F311
:1003100018460837BD4680BD00800C400400002010
:1003200000000020003FAB01406F4001809FD500DE
:10033000C0D8A70040B56400C0CF6A00804F12004B
:1003400040420F0080B400AF034B1B681846BD4607
:100350005DF8047B704700BF0000002080B400AF50
:10036000054A054BD3F8883043F47003C2F888304F
:10037000BD465DF8047B704700ED00E080B400AF3F
:100380004FF400431846BD465DF8047B704700BF3C
:1003900080B400AF4FF47A731846BD465DF8047B15
:1003A000704700BF80B400AF034B1B681846BD46C2
:1003B0005DF8047B704700BF0400002080B483B068
:1003C00000AF0346FB71084997F907305B09FA79DA
:1003D00002F01F02012000FA02F241F823200C373C
:1003E000BD465DF8047B704700E100E080B483B057
:1003F00000AF78607B685B6A18460C37BD465DF8D5
:10040000047B704780B483B000AF786039607B684C
:100410003A681A620C37BD465DF8047B704700BF2E
:1004200080B483B000AF786039607B685A693B68FC
:100430001A437B685A610C37BD465DF8047B7047F0
:1004400080B483B000AF78600B46FB70FA787B68AD
:100450005A600C37BD465DF8047B704780B400AF2E
:10046000054A054B1B6923F00403136130BFBD46E9
:100470005DF8047B704700BF00ED00E080B400AF82
:1004800072B6084B1B68B3F1FF3F04D0054B1B68E5
:100490000133044A1360034B1B681846BD465DF8E0
:1004A000047B70473805002080B483B000AF0C4B4C
:1004B0001B68002B0DD00A4B1B68013B084A1360D8
:1004C000074B1B687B607B68002B00D162B67B68A2
:1004D00000E0002318460C37BD465DF8047B7047EA
:1004E0003805002080B485B000AF78601B4B1B68D6
:1004F000FB601B4B1B681B4A126802FB03F2FB6884
:100500001344FB60184B1B68002B0CD0144B1B686A
:10051000154A126802FB03F3144A1288B3FBF2F285
:10052000FB681344FB60124B5B68104A1288B3FBF4
:10053000F2F2FB681344FB600E4B1B68FA6813442D
:10054000FB607B68002B02D07B68FA681A60FB684E
:1005500018461437BD465DF8047B70472004002020
:1005600024040020280400202C0400201C04002067
:10057000000008403404002080B582B000AF7860ED
:100580007B685B6A9AB2154B1A807B689B6A1A4635
:10059000134B1A60134B00221A60104B1B881A462B
:1005A0004FF0807393FBF2F31A460F4B1A600B4B1C
:1005B0001B881A464FF0807393FBF2F102FB01F2A5
:1005C0009B1A1A46094B1A607B68184600F010F80F
:1005D00000F02EF80837BD4680BD00BF1C04002087
:1005E0003804002024040020280400202C040020CB
:1005F00080B582B000AF7860786808F0C1FA024632
:10060000024B1A600837BD4680BD00BF20040020A1
:1006100080B400AF054B1B680133044A1360034BE1
:100620001B681846BD465DF8047B70472404002013
:1006300080B586B000AF2A4B1B6803F47F031B0C08
:10064000DAB2284B1A70264BDB681B0D9AB2264B88
:100650001A802648012102F0A1FE00233B740023EA
:100660007B740023BB741F23FB7400233B750023A2
:100670007B7500233B7100237B710023BB7100233A
:10068000FB7100233B7200237B720023BB720023AB
:10069000FB7200233B73002002F02CFB0346FB742B
:1006A0001348002102F0F4FA03463B7507F11003EA
:1006B0001048194602F05AFA0023BB7108233B7216
:1006C0003B1D0C48194602F095FA0A480121FFF734
:1006D000A7FE0720FFF772FE1837BD4680BD00BF9A
:1006E000B081E00F30040020320400200002050039
:1006F000801A0600002000402DE9B04384B000AF0E
:100700002B480121FFF79CFE05E0FFF7B7FEFFF73E
:10071000A5FEFFF7C9FE264B9B6803F48033002B30
:10072000F3D02348FFF762FEF860224B1B7818468F
:1007300007F036FC04460D461F4B1B88184607F091
:100740001FFC80468946F86807F01AFC02460B46F3
:100750004046494607F0D6FA02460B46104619466F
:1007600011A3D3E9002307F0ABFD02460B46204658
:10077000294607F0C9FA02460B46C7E90023D7E924
:10078000000107F06DFA02460B461046194607F0C5
:1007900007FF0346DBB25BB218461037BD46BDE823
:1007A000B08300BFAFF300803333333333331940AA
:1007B00000200040300400203204002080B582B0C8
:1007C00000AFFFF799FF0346BB7197F90630193B5D
:1007D000184607F02DFF0346FB71FB79462B01D924
:1007E0004623FB71FB79254A32F813301BB2244AA9
:1007F000126802FB03F2234B1B681344214A136067
:100800000FE0214B1B881A46204B03FB02F21D4BC5
:100810001B6813441B4A13601D4B1B68013B1C4A99
:100820001360194B1B881A464FF47A7303FB02F2CC
:10083000144B1B689A42E4DB10E0134B1B881A46EA
:100840004FF47A7303FB02F20E4B1B6813440D4AFC
:1008500013600F4B1B6801330D4A13600A4B1B8852
:100860001A460A4B03FB02F2064B1B689A42E4DC71
:10087000074B1B6818460837BD4680BDF8AE000020
:10088000380400203C0400201C04002018FCFFFF5A
:100890003404002080B500AF02480121FFF7B2FD0B
:1008A00080BD00BF0020004080B483B000AF03468D
:1008B000FB71084997F907305B09FA7902F01F02CA
:1008C000012000FA02F241F823200C37BD465DF802
:1008D000047B704700E100E080B483B000AF0346C2
:1008E000FB71094997F907305B09FA7902F01F0299
:1008F000012000FA02F2603341F823200C37BD4694
:100900005DF8047B704700BF00E100E080B483B075
:1009100000AF03463960FB7197F90730002B0BDA03
:100920000D49FB7903F00F03043B3A68D2B2520140
:10093000D2B20B441A7609E0084997F907303A68B1
:10094000D2B25201D2B20B4483F800230C37BD4619
:100950005DF8047B704700BF00ED00E000E100E0BF
:1009600080B483B000AF7860034A7B6893610C3732
:10097000BD465DF8047B70470000084080B483B03A
:1009800000AF78600549054BDA697B681343CB619A
:100990000C37BD465DF8047B704700BF000008407F
:1009A00080B400AF034B1B691846BD465DF8047B5D
:1009B000704700BF00000840B0B58CB000AF0D4BD1
:1009C0003C1D1D460FCD0FC40FCD0FC495E8070089
:1009D00084E807004FF40043BB623C23FB623B1DED
:1009E0001846FFF7C9FD00F007F801231846303715
:1009F000BD46B0BD88AF000080B582B000AF1948D9
:100A0000022102F0A9FE1848012102F0C7FC174894
:100A1000012102F0C3FC1448012102F0A9FB0023CC
:100A20007B710023BB7100233B713B1D184603F013
:100A300043FD00204FF4F01103F010FD0320FFF7F9
:100A40009DFF1E20FFF748FF1E200221FFF75EFFDB
:100A50001E20FFF729FF012003F01EFD0837BD46C9
:100A600080BD00BF02001A006016100000430200A3
:100A700080B500AFFFF794FF034603F00203002B9D
:100A80000DD0154B9B6803F5F0130020194603F0B9
:100A9000E5FC0220FFF764FF104B01221A70FFF7FC
:100AA0007FFF034603F00103002B04D0FFF7B0FDE6
:100AB0000120FFF755FFFFF773FF034603F0040320
:100AC000002B08D00420FFF74BFF04200F21042245
:100AD000002303F0B5FA80BD000008400D0000209F
:100AE00080B483B000AF0346FB71FB79002B01D0CB
:100AF000012301E0034B1B7818460C37BD465DF817
:100B0000047B70470C00002080B584B000AFB96052
:100B10007A603B600346FB73FB7B002B02D13B6892
:100B2000002B01D104234BE0274B1B7803F001037A
:100B3000002B01D0032343E0244B1B6803F0080380
:100B4000002B02D17B685B027B603B68012B11D1DB
:100B50001120796804F034F90346002B28D1B868D5
:100B60004FF4007104F012F80346002B20D000234C
:100B70003B601DE01220796804F022F90346002B47
:100B800016D1B8684FF4007104F000F80346002B4A
:100B900000D109E0BB6803F50073BB603B68013B13
:100BA0003B603B68002BECD10C20002104F008F9DD
:100BB00003F0CCFF3B68002B14BF01230023DBB202
:100BC00018461037BD4680BD0C00002040040020B0
:100BD00080B584B000AFB9607A603B600346FB73B8
:100BE000FB7B002B02D13B68002B01D1042360E08A
:100BF000324B1B7803F00103002B01D0032358E094
:100C00002E4B1B7803F00403002B01D0022350E08D
:100C10002B4B1B6803F00803002B02D17B685B029F
:100C20007B603B68012B10D11820796804F0C8F86C
:100C30000346002B35D1B868FE2104F02FF8034697
:100C4000002B2ED000233B602BE01D4B1B6803F0D4
:100C50000603002B03D09720396804F0B1F819205F
:100C6000796804F0ADF80346002B1AD1B868FC216E
:100C700004F014F80346002B00D109E0BB6803F52B
:100C80000073BB603B68013B3B603B68002BEDD1D0
:100C90000020FD2104F002F80346002B01D10123BE
:100CA0003B6003F053FF3B68002B14BF012300237C
:100CB000DBB218461037BD4680BD00BF0C000020D7
:100CC0004004002090B58BB000AF03463A60FB7142
:100CD0000B46BB713B683B62FB79002B01D00423C0
:100CE0007EE1C14B1B7803F00103002B01D00323ED
:100CF00076E1012387F82730BB790A2B00F00281C7
:100D00000A2B0BDC012B2ED0012B02DC002B17D081
:100D10005FE1022B76D0032B7CD05AE10D2B00F043
:100D200020810D2B06DC0B2B00F0F5800C2B00F046
:100D300005814EE10E2B00F03681FF2B0CD048E1EF
:100D400003F010FF0346002B05D003F0FFFE002345
:100D500087F8273040E13FE1A34B01221A700023BE
:100D600087F8273038E10920002104F029F80346EC
:100D7000002B46D107F10C031846102103F006FFA3
:100D80000346002B3DD03B7B9B09DBB2012B0BD1F3
:100D90007B7D1A463B7D1B0213440133FB61FB69DB
:100DA0009A023B681A6028E07B7C03F00F03DAB2FA
:100DB000BB7DDB09DBB21344DAB27B7D03F00303B6
:100DC000DBB25B00DBB21344DBB2023387F82630C0
:100DD0003B7D9B09DBB21A46FB7C9B001A44BB7C23
:100DE00003F003039B0213440133FB6197F82630A1
:100DF000093BFA699A403B681A60002387F827305C
:100E0000EAE0E9E03B684FF400721A80002387F8BB
:100E10002730E1E0754B1B6803F00403002B2FD053
:100E20008D20002103F0CCFF0346002B69D1FF2069
:100E300003F070FE07F10C031846102103F0A6FE24
:100E40000346002B5DD0302387F8263007E0FF20D3
:100E500003F060FE97F82630013B87F8263097F8BC
:100E60002630002BF3D1BB7D1B09DBB21A461023C1
:100E700003FA02F23B681A60002387F82730ABE0E0
:100E80000920002103F09CFF0346002B39D107F114
:100E90000C031846102103F079FE0346002B30D0D6
:100EA000524B1B6803F00203002B12D0BB7D03F0F2
:100EB0003F035B00FA7DD209D2B213445A1C7B7EF9
:100EC0009B09DBB2013B02FA03F31A463B681A6046
:100ED00013E0BB7D03F07C039B109BB20133FA7DD2
:100EE00002F00302D200F97D4909C9B20A44013275
:100EF00002FB03F31A463B681A60002387F8273089
:100F00006AE069E0394B1B68DAB23B6A1A70002369
:100F100087F8273060E00920002103F051FF0346E5
:100F2000002B0AD13868102103F030FE0346002B55
:100F300003D0002387F827304EE04DE00A2000213F
:100F400003F03EFF0346002B0AD13868102103F05E
:100F50001DFE0346002B03D0002387F827303BE01B
:100F60003AE03A20002103F02BFF0346002B19D171
:100F7000002387F826300DE097F826303A68D41819
:100F8000FF2003F0C7FD0346237097F82630013396
:100F900087F8263097F82630032BEDD9002387F801
:100FA000273019E018E08D20002103F009FF0346E7
:100FB000002B0DD1FF2003F0ADFD3868402103F078
:100FC0006DFE0346002B03D0002387F8273003E093
:100FD00002E0042387F8273003F0B8FD97F82730A4
:100FE00018462C37BD4690BD0C0000204004002060
:100FF00080B485B000AF78607B6801331B78FB81DB
:10100000FB891B029AB27B681B789BB213439BB28D
:10101000FB81FB8918461437BD465DF8047B704799
:1010200080B485B000AF78607B6803331B78FB60C9
:10103000FB681B027A68023212781343FB60FB687C
:101040001B027A68013212781343FB60FB681B02B3
:101050007A6812781343FB60FB6818461437BD4664
:101060005DF8047B704700BF80B483B000AF786048
:101070000B467B807B685A1C7A607A88D2B21A70E1
:101080007B881B0A7B807B685A1C7A607A88D2B284
:101090001A700C37BD465DF8047B704780B483B08E
:1010A00000AF786039607B685A1C7A603A68D2B2C7
:1010B0001A703B681B0A3B607B685A1C7A603A686E
:1010C000D2B21A703B681B0A3B607B685A1C7A607C
:1010D0003A68D2B21A703B681B0A3B607B685A1CA4
:1010E0007A603A68D2B21A700C37BD465DF8047B5C
:1010F000704700BF2DE9B00F8DB000AFF862C7E9AF
:101100000823FA6A531CFB6297F820301370D7E962
:101110000823140A44EA03641D0AC7E90845FA6A69
:10112000531CFB6297F820301370D7E90823110A8B
:10113000B961B96941EA0361B9611B0AFB61D7E989
:101140000623C7E90823FB6A5A1CFA6297F8202095
:101150001A70D7E90823110A3961396941EA036134
:1011600039611B0A7B61D7E90423C7E90823FB6ABD
:101170005A1CFA6297F820201A70D7E90823110A3E
:10118000B960B96841EA0361B9601B0AFB60D7E93D
:101190000223C7E90823FB6A5A1CFA6297F8202049
:1011A0001A70D7E90823110A3960396841EA0361E6
:1011B00039601B0A7B60D7E90023C7E90823FB6A73
:1011C0005A1CFA6297F820201A70D7E908234FEAD0
:1011D000122A4AEA036A4FEA132BC7E908ABFB6AF3
:1011E0005A1CFA6297F820201A70D7E908234FEAB0
:1011F000122848EA03684FEA1329C7E90889FB6AFD
:101200005A1CFA6297F820201A703437BD46BDE8A0
:10121000B00F704780B487B000AFF860B9607A60F3
:10122000FB687B61BB683B617B68002B0DD07B69F1
:101230005A1C7A613A69511C396112781A707B68BC
:10124000013B7B607B68002BF1D11C37BD465DF80C
:10125000047B704780B487B000AFF860B9607A60F3
:10126000FB687B617B695A1C7A61BA68D2B21A70DA
:101270007B68013B7B607B68002BF3D11C37BD464C
:101280005DF8047B704700BF80B586B000AF786022
:101290000023FB737B68DB78002B36D07B685B6BAD
:1012A0007B617B685A787B683833104619467A69C7
:1012B0000123FFF78DFC0346002B02D00123FB73B3
:1012C00023E07B680022DA707B689B6A7A69D21A15
:1012D0007B681B6A9A4218D27B689B783B6111E05D
:1012E0007B681B6A7A6913447B617B685A787B68E8
:1012F0003833104619467A690123FFF769FC3B69C8
:10130000013B3B613B69012BEAD8FB7B1846183750
:10131000BD4680BD80B584B000AF786039600023E1
:10132000FB737B685A6B3B689A421CD07868FFF766
:10133000ABFF0346FB73FB7B002B14D17B685A7811
:101340007B683833104619463A680123FFF7DCFB07
:101350000346002B04D04FF0FF333B600123FB73A7
:101360007B683A685A63FB7B18461037BD4680BDE0
:1013700080B584B000AF78607868FFF785FF0346DA
:10138000FB73FB7B002B57D17B681B78032B47D16A
:101390007B681B79012B43D17B68383318460021C9
:1013A0004FF40072FFF756FF7B6803F236231846AE
:1013B0004AF65521FFF758FE7B6838331846214915
:1013C000FFF76CFE7B6803F5077318461E49FFF7AD
:1013D00065FE7B6803F508727B689B6910461946B9
:1013E000FFF75CFE7B6803F509727B685B6910465A
:1013F0001946FFF753FE7B685B6A5A1C7B685A6389
:101400007B6859787B6803F138027B685B6B084620
:1014100011461A460123FFF7DBFB7B6800221A7195
:101420007B685B78184600210022FFF74BFC0346DF
:10143000002B01D00123FB73FB7B18461037BD4600
:1014400080BD00BF525261417272416180B483B06D
:1014500000AF786039603B68023B3B607B68DB69CA
:101460009A1E3B689A4201D8002308E07B685B899A
:101470001A463B6803FB02F27B681B6B1344184659
:101480000C37BD465DF8047B704700BF80B588B05F
:1014900000AF7860396079680968B96139680129F5
:1014A00004D9B969C8693968884202D80123FB6147
:1014B000EAE04FF0FF31F961B96909780139032990
:1014C00000F2E08001A050F821F000BFDD14000020
:1014D0006515000099150000D11500003B687B617F
:1014E0007B695B087A6913447B61BB699A6A7B6993
:1014F0005B0A1344B8691946FFF70CFF0346002B3B
:1015000000D0C1E07B695A1C7A61C3F30803BA6951
:10151000134493F838303B61BB699A6A7B695B0A74
:101520001344B8691946FFF7F5FE0346002B00D0B7
:10153000AAE07B69C3F30803BA69134493F838300F
:101540001B021A463B6913433B613B6803F00103EE
:10155000002B02D03B691B0902E03B69C3F30B037C
:10156000FB6191E0BB699A6A3B681B0A1344B86946
:101570001946FFF7CFFE0346002B00D084E03B68FE
:101580005B0003F4FF733833BA6913441846FFF75E
:101590002FFD0346FB6177E0BB699A6A3B68DB0974
:1015A0001344B8691946FFF7B5FE0346002B00D077
:1015B0006AE03B689B0003F4FE733833BA69134456
:1015C0001846FFF72DFD034623F07043FB615BE0F7
:1015D0007968D1E90401014354D079688968386891
:1015E000411AF9607968D1E9040110F1FF3041F145
:1015F000FF31420A42EAC1524B0ABB695B89B2FB26
:10160000F3F3BB607B68DB79022B0ED1FA68BB6811
:101610009A420AD8FA68BB689A4202D03B68013302
:1016200001E06FF00043FB612EE07B68DB79032B68
:1016300008D17B689A69FB689A4203D93B680133F9
:10164000FB6121E07B68DB79022B1BD0BB699A6AC6
:101650003B68DB091344B8691946FFF75BFE034694
:10166000002B00D010E03B689B0003F4FE7338337E
:10167000BA6913441846FFF7D3FC034623F000432E
:10168000FB6101E00123FB61FB6918462037BD4681
:1016900080BD00BF90B589B000AFF860B9607A60D6
:1016A0000223FB77BB68012B40F2D980FB68DA6923
:1016B000BB689A4240F2D380FB681B78013B032B46
:1016C00000F2CD8001A252F823F000BFDD16000029
:1016D000B7170000F7170000F7170000BB68BB61E1
:1016E000BB695B08BA691344BB61FB689A6ABB6952
:1016F0005B0A1344F8681946FFF70CFE0346FB77B4
:10170000FB7F002B00D0AAE0BB695A1CBA61C3F36F
:1017100008033833FA6813447B61BB6803F00103A4
:10172000002B0DD07B691B78DBB203F00F03DAB21C
:101730007B68DBB21B01DBB21343DBB2DBB201E03F
:101740007B68DBB27A691370FB680122DA70FB6890
:101750009A6ABB695B0A1344F8681946FFF7DAFD19
:101760000346FB77FB7F002B00D078E0BB69C3F317
:1017700008033833FA6813447B61BB6803F0010344
:10178000002B03D07B681B09DBB20EE07B691B7862
:10179000DBB223F00F03DAB27B681B0ADBB203F083
:1017A0000F03DBB21343DBB2DBB27A691370FB6861
:1017B0000122DA7053E0FB689A6ABB681B0A134483
:1017C000F8681946FFF7A6FD0346FB77FB7F002B61
:1017D00000D044E0BB685B0003F4FF733833FA6861
:1017E0001A447B689BB210461946FFF73DFCFB6824
:1017F0000122DA7033E0FB689A6ABB68DB091344A4
:10180000F8681946FFF786FD0346FB77FB7F002B40
:1018100000D024E0FB681B78042B11D07B6823F0F8
:101820007044BB689B0003F4FE733833FA681344BA
:101830001846FFF7F5FB034603F0704323437B6034
:10184000BB689B0003F4FE733833FA6813441846F0
:101850007968FFF723FCFB680122DA7000BFFB7F89
:1018600018462437BD4690BD80B58AB000AFF860F9
:10187000B9607A60BB68023BBB60FB68DB699A1E9B
:10188000BB689A4201D80023BB60BB68FB61FB695F
:10189000BB6100237B61FB681A6BFB691B0B134464
:1018A000F8681946FFF736FD0346002B02D04FF0CB
:1018B000FF3351E0FB69DB08C3F308033B62FB69BC
:1018C00003F00703012202FA03F387F82730FA68CE
:1018D0003B6A134438331A7897F827301340FB7467
:1018E00097F827305B0087F82730FB690133FB61ED
:1018F000FB68DB69023BFA699A4207D30023FB616C
:10190000002387F827304FF480533B62FB7C002B89
:1019100009D17B6901337B617A697B689A4206D180
:10192000BB69023318E0FB69BB6100237B61FA6984
:10193000BB689A4201D100230EE097F82730002BB4
:10194000C5D1012387F827303B6A01333B623B6AEC
:10195000B3F5007FBBD39EE718462837BD4680BD50
:1019600080B588B000AFF860B9607A603B60BB6852
:10197000023BBB60FB681A6BBB681B0B13447B61AB
:10198000BB68DB08C3F30803BB61BB6803F0070354
:10199000012202FA03F3FB777B695A1C7A61F8682B
:1019A0001946FFF7B7FC0346002B01D001233DE0A9
:1019B000FA68BB69134438331A78FB7F1340DBB2F3
:1019C000002B14BF01230023DBB21A463B689A4266
:1019D00001D102232AE0FA68BB69134438331A782C
:1019E000FB7F5340D9B2FA68BB69134438330A46C7
:1019F0001A70FB680122DA707B68013B7B607B68B0
:101A0000002B01D1002311E0FB7F5B00FB77FB7F04
:101A1000002BCDD10123FB77BB690133BB61BB69CF
:101A2000B3F5007FC4D30023BB61B5E71846203768
:101A3000BD4680BD80B586B000AF78607B68DB793D
:101A4000032B22D17B689B687B617B689B693B6130
:101A500015E07B681A687B690133104679691A467C
:101A6000FFF718FE0346FB73FB7B002B01D0FB7BCB
:101A70000CE07B6901337B613B69013B3B613B6966
:101A8000002BE6D17B680022DA7100231846183754
:101A9000BD4680BD80B588B000AF786039607B6896
:101AA0001B683B613B68002B0DD13B695B69BB61E7
:101AB000BB69002B04D03B69DA69BB699A421BD829
:101AC0000123BB6118E078683968FFF7DFFCF86034
:101AD000FB68012B01D80123BCE0FB68B3F1FF3F99
:101AE00001D1FB68B6E03B69DA69FB689A4201D92B
:101AF000FB68AFE03B68BB613B691B78042B3BD1C3
:101B00003869B9690122FFF7AFFEF861FB69002B64
:101B100003D0FB69B3F1FF3F01D1FB699AE038695B
:101B2000F96901220123FFF71BFF0346FB75FB7DCB
:101B3000022B01D101238DE0FB7D012B02D14FF05F
:101B4000FF3387E03B68002B03D17B680222DA7108
:101B50003DE07B68DB79022B39D1BB695A1CFB69FC
:101B60009A4234D07B689B68BA69D21A7B689A61C2
:101B70007B680322DA712AE0BB69FB61FB690133F0
:101B8000FB613B69DA69FB699A4207D80223FB6172
:101B9000FA69BB699A4201D900235BE07868F96968
:101BA000FFF774FCF860FB68002B00D10FE0FB68C6
:101BB000012B03D0FB68B3F1FF3F01D1FB6849E083
:101BC000FA69BB699A4201D1002343E0D6E73B6939
:101BD0001B78042B06D17B68DB79022B02D1002312
:101BE000FB7514E03869F9694FF0FF32FFF752FDD9
:101BF0000346FB75FB7D002B09D13B68002B06D00B
:101C000038693968FA69FFF745FD0346FB75FB7DC6
:101C1000002B16D13B69FA695A613B699A693B69A5
:101C2000DB69023B9A4204D23B699B695A1E3B69BD
:101C30009A613B691B7943F00103DAB23B691A717F
:101C400007E0FB7D012B02D14FF0FF3300E00123C1
:101C5000FB61FB6918462037BD4680BD80B586B064
:101C600000AF786039607B681B683B613B691B781B
:101C7000042B02D14FF0805201E04FF400123B6878
:101C80009A4204D93B6803F01F03002B01D00223C2
:101C900065E07B683A689A627B689B687B617B69D8
:101CA000002B09D13B691B78022B05D93B69DB6A04
:101CB0007B617B680022DA717B69002B0CD13B6869
:101CC0005B093A691289934201D3022347E03B69D9
:101CD000DA6A7B681A6329E03B695B895B02FB6017
:101CE00019E07B6818467969FFF7D0FB78617B695A
:101CF000B3F1FF3F01D1012331E07B69012B04D90E
:101D00003B69DA697B699A4201D8022327E03A6885
:101D1000FB68D31A3B603A68FB689A42E1D23869A3
:101D20007969FFF793FB02467B681A637B687A69DF
:101D3000DA627B681B6B002B01D102230FE07B680A
:101D40001A6B3B685B0A1A447B681A633B68C3F3EF
:101D5000080338333A691A447B685A6300231846EB
:101D60001837BD4680BD00BF80B586B000AF786033
:101D700039607B681B68FB607B689B6A2033BB60B3
:101D80007B681B6B002B0BD0FB681B78042B02D1EC
:101D90004FF0805201E04FF40012BB689A4201D824
:101DA0000423B1E0BB68C3F30803002B40F0A0801C
:101DB0007B681B6B5A1C7B681A637B68DB6A002B91
:101DC0000BD1BB685B09FA6812899342C0F090801E
:101DD0007B6800221A63042396E0BB685B0AFA68FA
:101DE0005289013A1340002B40F082807A687B6868
:101DF000DB6A10461946FFF749FB78617B69012BC6
:101E000001D8022380E07B69B3F1FF3F01D10123B8
:101E10007AE0FB68DA697B699A425FD83B68002BFD
:101E200004D17B6800221A6304236DE07A687B6822
:101E3000DB6A10461946FFF72DFE78617B69002B9F
:101E400001D1072360E07B69012B01D102235BE014
:101E50007B69B3F1FF3F01D1012355E07B68DB795A
:101E600043F00403DAB27B68DA71F868FFF70CFA22
:101E70000346002B01D0012346E0FB6838331846A7
:101E800000214FF40072FFF7E5F900233B61F86889
:101E90007969FFF7DBFA0246FB685A6312E0FB68D8
:101EA0000122DA70F868FFF7EFF90346002B01D042
:101EB000012329E03B6901333B61FB685B6B5A1CE2
:101EC000FB685A63FB685B891A463B699A42E6D80D
:101ED000FB685A6B3B69D21AFB685A637B687A6964
:101EE000DA62F8687969FFF7B1FA02467B681A632B
:101EF0007B68BA689A62BB68C3F308033833FA6830
:101F00001A447B685A63002318461837BD4680BDC3
:101F100080B584B000AFF860B9607A60BB6803F147
:101F20001A027B689BB210461946FFF79DF8FB68C2
:101F30001B78032B09D1BB6803F114027B681B0CCF
:101F40009BB210461946FFF78FF81037BD4680BD8B
:101F500080B487B000AF78607B6801331B780133B1
:101F60005B01FB6000237B8200237B611EE07B69B9
:101F7000022B03D17B6901337B6114E07B8A03F080
:101F80000103002B02D04FF4004200E000227B8AC4
:101F90005B089BB213449AB279687B690B441B7847
:101FA0009BB213447B827B6901337B617A69FB6856
:101FB0009A42DCD37B8A18461C37BD465DF8047B09
:101FC000704700BF90B587B000AF78607B681B6832
:101FD0001B693B617B681A687B681B6B104619465E
:101FE000FFF798F90346FB73FB7B002B01D0FB7BCB
:101FF0008CE07B685B6B1B78852B01D0022385E02E
:102000007B685B6B386919462022FFF703F93B694F
:1020100001331B780133BB6078680021FFF7A4FE11
:102020000346FB73FB7B002B01D0FB7B6EE07B68E0
:102030001A687B681B6B10461946FFF76BF903465D
:10204000FB73FB7B002B01D0FB7B5FE07B685B6B52
:102050001B78C02B01D0022358E03B6903F120021A
:102060007B685B6B104619462022FFF7D3F8BB68EC
:10207000022B02D9BB68132B01D9042346E040236D
:102080007B61BB685B01BB6078680021FFF76CFE79
:102090000346FB73FB7B002B01D0FB7B36E07B68A8
:1020A0001A687B681B6B10461946FFF733F9034625
:1020B000FB73FB7B002B01D0FB7B27E07B685B6B1A
:1020C0001B78C12B01D0022320E03A697B691A44B6
:1020D0007B685B6B104619462022FFF79BF87B69F3
:1020E00020337B617A69BB689A42CDD33869FFF7A8
:1020F0002FFF03461C463B6902331846FEF778FF64
:1021000003469C4201D0022300E0002318461C37FE
:10211000BD4690BD80B584B000AF786039603B6843
:102120001A687B681A603B68DA697B689A603B686A
:102130001B6ADAB27B68DA713B681B6A1A464FF099
:1021400000036FF0FF004FF0000102EA000203EA13
:1021500001037968C1E904233B685A6A7B685A64C1
:102160007B685B6C78681946FFF778FD0346FB7364
:10217000FB7B002B04D17868FFF724FF0346FB7339
:10218000FB7B18461037BD4680BD00BF90B587B0B9
:1021900000AF78607B681B681B69FB60FB689C1C58
:1021A000F868FFF7D5FE034620461946FEF75CFFA8
:1021B000FB6801331B7801333B617B685B6C78689B
:1021C0001946FFF74BFD0346FB7528E07B681A684C
:1021D0007B681B6B10461946FFF79CF80346FB759E
:1021E000FB7D002B00D01DE07B685B6B1846F96817
:1021F0002022FFF70FF87B681B680122DA703B6929
:10220000013B3B613B69002B00D10BE0FB682033B5
:10221000FB6078680021FFF7A7FD0346FB75FB7D97
:10222000002BD3D0FB7D002B02D0FB7D012B01D1F5
:10223000FB7D00E0022318461C37BD4690BD00BF61
:1022400080B584B000AF786039607B68002B1AD00D
:102250007B681B68002B16D07B681B681B78002BE3
:1022600011D07B681B68DA887B689B889A420AD108
:102270007B681B685B781846FEF732FC034603F068
:102280000103002B05D03B6800221A600923FB7371
:1022900005E07B681A683B681A600023FB73FB7BD0
:1022A00018461037BD4680BDB0B58CB000AFF860A1
:1022B000B9607A603B60BB68FB613B6800221A60D2
:1022C000FA6807F1100310461946FFF7B9FF0346F5
:1022D00087F82F3097F82F30002B08D1FB6893F840
:1022E000293087F82F3097F82F30002B02D097F83D
:1022F0002F307DE1FB6893F8283003F00203002BB8
:1023000001D1072374E13B691B78042B10D0FB68D3
:10231000D3E90C237B68D118FB68D3E90C2313465F
:10232000994205D2FB68D3E90C231346DB437B605B
:1023300050E1FB68D3E90C2340F2FF104FF000019D
:1023400002EA000203EA0103134340F0F380FB6852
:10235000D3E90C23540A44EAC3545D0A22463B697C
:102360005B89013B1340BB61BB69002B3AD1FB6821
:10237000D3E90C2313430CD1FB689B68BB62BB6A97
:10238000002B0ED1FB6818460021FFF783FBB862D3
:1023900007E0FA68FB689B6B10461946FFF77AFB6B
:1023A000B862BB6A002B00D118E1BB6A012B05D1D2
:1023B000FB68022283F82920022319E1BB6AB3F1EA
:1023C000FF3F05D1FB68012283F8292001230FE19B
:1023D000FB68BA6A9A63FB689B68002B02D1FB68B2
:1023E000BA6A9A60FB6893F82830DBB25BB2002BC4
:1023F0001EDA3B695978FB6803F14802FB68DB6B26
:10240000084611461A460123FEF7E2FB0346002B5D
:1024100005D0FB68012283F829200123E8E0FB684E
:1024200093F8283003F07F03DAB2FB6883F82820A2
:102430003A69FB689B6B10461946FFF707F878610D
:102440007B69002B05D1FB68022283F82920022337
:10245000CEE07A69BB6913447B617B685B0A3B62AF
:102460003B6A002B41D0BA693B6A13443A695289EE
:10247000934205D93B695B891A46BB69D31A3B6213
:102480003B695B781846F9697A693B6AFEF7A0FBFD
:102490000346002B05D0FB68012283F82920012385
:1024A000A6E0FB68DA6B7B69D21A3B6A9A4218D2C3
:1024B000FB6803F14801FB68DA6B7B69D31A5B02A6
:1024C000FA691344084619464FF40072FEF7A2FE5B
:1024D000FB6893F8283003F07F03DAB2FB6883F8D7
:1024E00028203B6A5B027B624AE0FB68DA6B7B690F
:1024F0009A421CD0FB68D3E90C01FB68D3E90423A2
:10250000994208BF904212D23B695A78FB6848331F
:10251000104619467A690123FEF7F6FA0346002BA6
:1025200005D0FB68012283F82920012360E0FB68C5
:102530007A69DA63FB68D3E90C231346C3F3080313
:10254000C3F500737B627A6A7B689A4201D97B6823
:102550007B62FB68D3E90C231346C3F308034833BB
:10256000FA6813441846F9697A6AFEF753FEFB6865
:1025700093F8283063F07F03DAB2FB6883F82820F1
:10258000FA697B6A1344FB61FB68D3E90C017B6A3F
:102590001A464FF00003121843EB0103F968C1E932
:1025A0000C23FB68D3E90423F968D1E90C018B42C1
:1025B00008BF824201D202460B46F968C1E90423F2
:1025C0003B681A687B6A1A443B681A607A687B6ABF
:1025D000D31A7B607B68002B7FF4ABAEFB6893F86B
:1025E000283043F04003DAB2FB6883F82820002348
:1025F00018463037BD46B0BD80B598B000AF7860A2
:102600007A6807F1500310461946FFF719FE034692
:1026100087F85F3097F85F30002B40F0FB807B68D5
:1026200093F8283003F04003002B00F0F3807B6820
:1026300093F82830DBB25BB2002B1ADA3B6D597885
:102640007B6803F148027B68DB6B084611461A463B
:102650000123FEF7BDFA0346002B01D00123DBE086
:102660007B6893F8283003F07F03DAB27B6883F845
:10267000282003F053FBB8653B6D1B78042B7CD1FD
:102680007B681846FFF7D6F9034687F85F3097F85E
:102690005F30002B40F0BE807B6807F108021046D7
:1026A0001946FFF737FD034687F85F3097F85F302C
:1026B000002B61D13B6D1B6904333A6D1269043202
:1026C000127842F02002D2B21A703B6D1B6921339E
:1026D0007A68D27942F00102D2B21A703B6D1B695E
:1026E00003F134027B689B6810461946FEF7D6FC5E
:1026F0003B6D1B6903F138017B68D3E9042308466D
:10270000FEF7F8FC3B6D1B6903F128017B68D3E9F8
:1027100004230846FEF7EEFC3B6D1B690C3318469C
:10272000B96DFEF7BBFC3B6D1B69153300221A70B7
:102730003B6D1B69103318460021FEF7AFFC07F113
:1027400008031846FFF722FD034687F85F3097F825
:102750005F30002B10D13B6D1846FEF709FE034693
:1027600087F85F307B6893F8283023F04003DAB2B3
:102770007B6883F828204DE04CE03A6D7B681B6C49
:1027800010461946FEF7C6FD034687F85F3097F8F6
:102790005F30002B3ED17B685B6C7B657B6D0B33C0
:1027A0007A6D0B32127842F02002D2B21A707B6836
:1027B0001A687B689B681046796D1A46FFF7A8FB7C
:1027C0007B6D03F11C017B68D3E9042313460846A3
:1027D0001946FEF763FC7B6D16331846B96DFEF79C
:1027E0005DFC7B6D123318460021FEF73DFC3B6D0E
:1027F0000122DA703B6D1846FEF7BAFD034687F8F2
:102800005F307B6893F8283023F04003DAB27B68AE
:1028100083F8282097F85F3018466037BD4680BDA2
:1028200080B483B000AF03463960FB7197F907307D
:10283000002B0BDA0D49FB7903F00F03043B3A68D8
:10284000D2B25201D2B20B441A7609E0084997F984
:1028500007303A68D2B25201D2B20B4483F8002357
:102860000C37BD465DF8047B704700BF00ED00E00B
:1028700000E100E080B584B000AF78603960254B9E
:102880001B7883F00103DBB2002B01D0224B3DE02B
:102890007B68002B01D1214B38E001F0CBF8B86008
:1028A0000023FB602BE01E49FA6813469B0013448B
:1028B0009B000B4410331B7883F00103DBB2002B29
:1028C0001AD0FA687B681A601549FA6813469B00AB
:1028D00013449B000B44103301221A701049FA680C
:1028E00013469B0013449B000B4400221A60B868F7
:1028F00001F0B0F8002309E0FB680133FB60FB68DE
:102900000B2BD0DDB86801F0A5F8064B1846103740
:10291000BD4680BD44040020028000F0018000F02C
:1029200048040020048000F080B584B000AF7860D7
:10293000194B1B7883F00103DBB2002B01D0174B3E
:1029400025E07B680B2B01D9154B20E001F072F8D4
:10295000F86014497A6813469B0013449B000B44AB
:1029600010331B78002B0ED00E497A6813469B005B
:1029700013449B000B44103300221A70F86801F0D6
:1029800069F8002303E0F86801F064F8064B184684
:102990001037BD4680BD00BF44040020028000F017
:1029A000018000F048040020068000F080B584B06B
:1029B00000AF01F03FF8B860194B1B78002B04D032
:1029C000B86801F047F8174B25E0154B01221A7043
:1029D000B86801F03FF80023FB600CE01249FA6888
:1029E00013469B0013449B000B44103300221A70C3
:1029F000FB680133FB60FB680B2BEFDD002004213B
:102A0000FFF70EFF00233B70084B7B603B461846E8
:102A100001F0BCF9002318461037BD4680BD00BF49
:102A200044040020038000F0480400200006002039
:102A300080B489B000AF78600B46FB701346BB7062
:102A4000BB78002B04D010237B61444BBB6103E0B7
:102A500000237B61424BBB617B685A6BBB691340AF
:102A60003B610023FB617B683E4A934216D13E4B9B
:102A7000FB60FB78062B61D801A252F823F000BF5F
:102A80009F2A0000BD2A0000E12A0000032B00005D
:102A90003D2B00003D2B00002B2B000058E0FB6875
:102AA0001B6803F4FE43FA691343FB61FB681B6870
:102AB00003F07F03FA691343FB6142E0FB681B6884
:102AC00003F0FE431B0E1B02FA691343FB61FB6814
:102AD0001B6803F4FE031B0CFA691343FB6130E02F
:102AE000FB6804331B6803F4FE43FA691343FB617C
:102AF000FB6804331B6803F07F03FA691343FB612F
:102B00001FE0FB6804331B6803F0FE431B0E1B022F
:102B1000FA691343FB61FB6804331B6803F4FE038B
:102B20001B0CFA691343FB610BE0FB6808331B685D
:102B300003F07F03FA691343FB6102E00023FB61AA
:102B400000BF7B69FA699A403B691A437B685A6304
:102B50002437BD465DF8047B704700BFFFFF8080CF
:102B60008080FFFF00200040B481E00F80B584B07A
:102B700000AF786039603B681B79FB72FB7A002BF1
:102B800006D11B48002100F083F80346FB7208E0E1
:102B90001748002100F07CF84FF4FA40002100F0C3
:102BA00077F87B680A225A603B681B781A063B68F4
:102BB000DB781B0403F4FE031A43FB7A1B0203F4C5
:102BC000FE431A433B685B781B0113433A689278D3
:102BD0001343FB603B685B79002B03D0FB6843F039
:102BE0000803FB607B68FA681A601037BD4680BD39
:102BF000405DC60080B584B000AF786039607B6806
:102C000002225A603B689B78786819460022FFF7D9
:102C10000FFF3B681B781A073B685B781B051A435C
:102C20003B681B791B0213431A463B68DB781B0188
:102C30001343FB603B689B79002B03D0FB6843F098
:102C40008073FB603B68DB79002B03D0FB6843F0AB
:102C50000403FB603B685B79002B03D0FB6843F007
:102C60000203FB603B681B7A002B03D0FB6843F038
:102C70000103FB603B689B781B041A46FB68134307
:102C8000FB607B68FA68DA601037BD4680BD00BF24
:102C900080B584B000AF786039607B68134A934296
:102CA00002D9124B7B6006E07B68B3F5FA4F02D283
:102CB0004FF4FA437B603B68002B03D10C4800F0D3
:102CC000D5FB38603A687B6813445A1E7B68B2FBB8
:102CD000F3F3FB60FB68002B02D0FB68013BFB6059
:102CE000FB68DBB218461037BD4680BD405DC600AC
:102CF0004081040080B582B000AF78607B68002B13
:102D000008D1114800F0B2FB78607B68002B01D13C
:102D100001237B607B680D4A934201D90B4B7B609A
:102D20007B6803F5742303F23F237B607B68084ACA
:102D3000A2FB03239B0C7B607B68DBB2013BDBB215
:102D400018460837BD4680BD408104000048E801B0
:102D500083DE1B4380B487B000AFF860B9607A604F
:102D6000FB6803F10473DA00BB6813449B007B61CA
:102D70007B697A681A601C37BD465DF8047B704732
:102D800080B485B000AF786039607B6803F104736C
:102D9000DA003B6813449B00FB60FB681B68184625
:102DA0001437BD465DF8047B704700BF80B485B022
:102DB00000AF78607B68002B04D07B68B3F5004FD0
:102DC00000D800BF7B68B3FA83F3C3F11F03FB6035
:102DD000FB6818461437BD465DF8047B704700BF9A
:102DE00080B400AF044BDB6C1B0EDBB21846BD4653
:102DF0005DF8047B704700BFB081E00F80B584B000
:102E000000AF78600123FB607B68114A934204D8CD
:102E10000023FB600023BB6008E07B680D4A9342FF
:102E200002D80123BB6001E00223BB600A481E21D7
:102E3000FA68FFF78FFF0849074B5B6823F480723D
:102E4000BB681B0213434B601037BD4680BD00BFFB
:102E500000366E01006CDC0200800C4080B582B050
:102E600000AF05481E21FFF78BFF78607B6818468E
:102E70000837BD4680BD00BF00800C4080B582B0E1
:102E800000AF214B5B6903F4E063B3F5007F1CD016
:102E9000B3F5007F05D8002B25D0B3F5807F1FD078
:102EA0002AE0B3F5C06F24D0B3F5E06F1ED0B3F5C0
:102EB000407F21D1FFF794FF0346122B02D9134B19
:102EC0007B601CE0124B7B6019E0FFF789FF034633
:102ED000122B02D90F4B7B6011E00F4B7B600EE091
:102EE0000E4B7B600BE00E4B7B6008E00D4B7B6074
:102EF00005E00D4B7B6002E000237B6000BF7B6838
:102F000018460837BD4680BD00800C40804F120037
:102F100040420F0040B56400C0CF6A00C0D8A7008F
:102F2000809FD500406F4001003FAB0180B582B06B
:102F300000AF0D4800F07EFB0346FB70FB78072BCB
:102F400005D0092B07D1FDF77DF9786006E0FFF782
:102F500095FF786002E000237B6000BF7B68184625
:102F60000837BD4680BD00BF06000C0080B485B0A8
:102F700000AF78603960284BDB6B002B14BF012356
:102F80000023BB72244B41F67132DA63224B5B683B
:102F900003F00703FB60FB68012B01D9042B02D16E
:102FA0000023FB7202E00123FB7200BF7B681B4A17
:102FB000934207D9FB7A002B01D0052300E00423BC
:102FC000FB6016E07B68154A93420BD87B68144A75
:102FD000934207D9FB7A002B01D0032300E00123A1
:102FE000FB6006E0FB7A002B01D0022300E0002307
:102FF000FB600949084B5B6823F00702FB68134339
:103000004B60BB7A002B02D0034B0022DA631437EB
:10301000BD465DF8047B704700000C400048E801A5
:103020000024F40080B500AFFDF702F9034618460E
:103030000021FFF79BFF80BD80B582B000AF7860B4
:10304000396078683968FFF791FF0837BD4680BD61
:1030500090B585B000AF78600023BB607B68344AD0
:10306000934203D0334A934200D000E000BF786817
:1030700000F0E0FA0346FB607B682D4A934203D0E0
:103080002C4A934206D00CE02B4B9B6A03F00303BF
:10309000FB6006E0284B9B6A03F00C039B08FB6077
:1030A00000BFFB68032B3AD801A252F823F000BFFF
:1030B000E7300000C1300000C9300000D13000000E
:1030C000FDF75CF9B8602DE0FDF76CF9B86029E018
:1030D000FDF794F80446FFF7C1FE0346013324FAD6
:1030E00003F3BB601EE00023BB607B68104A934281
:1030F00003D07B680F4A934210D10F4B9A6A7B68CA
:103100000B498B4201D1102300E0142322FA03F370
:10311000002B03D0FDF73CF9B86003E002E0002388
:10312000BB6000BFBB6818461437BD4690BD00BFEA
:1031300002001A0003001C0000800C4080B483B021
:1031400000AF7860094B5B6D03F00103002B00D0EA
:1031500006E000BF054B1A6D7B681340002BF9D1C8
:103160000C37BD465DF8047B704700BF00800C4003
:10317000B0B584B000AF786039607B681B0903F09C
:103180000F03FB60FB68013B062B00F2F48001A2F9
:1031900052F823F0B131000077330000773300009C
:1031A000E7310000113200005F32000023330000DD
:1031B0003B68002B03D03B68082B00D800BFFFF70B
:1031C00031FF6F496E4B1B6823F4E0323B68013BD3
:1031D0009B0313430B60FDF711F8B860B86800213A
:1031E000FFF72AFFC8E03B68002B04D03B68B3F52B
:1031F000007F00D800BF3868FFF7D8FD386060490D
:103200005F4B9B6823F00F023B6813438B60B3E076
:103210003B68002B04D03B68B3F5007F00D800BFAB
:10322000FFF700FFFDF70EF802463B68B2FBF3F331
:103230001846FFF7E3FD3868FFF7B8FD38605049DE
:103240004F4B5B6823F00F023B6813434B60FCF766
:10325000D5FFB860B8680021FFF7EEFE8CE07B6810
:10326000484A93421ED0474A934203D8464A934263
:1032700007D055E0454A934225D0454A93423FD076
:103280004EE00420FFF75AFF3868FFF78FFD3860E3
:103290003B493B4B9B6E23F0F0023B681B01134301
:1032A0008B663DE00420FFF749FF3868FFF77EFD9D
:1032B00038603349324B9B6E23F470623B681B02CB
:1032C00013438B662CE03B680F2B03D93B68802BA4
:1032D00000D800BF0420FFF731FF3868FFF766FD14
:1032E0003860274D264B9B6E23F440541020FFF787
:1032F0005DFD02463B689B1A1B032343AB660FE050
:103300000420FFF71BFF3868FFF750FD38601C49A9
:103310001B4B9B6E23F003023B6813438B6600BF7D
:103320002AE07B681B4A934203D01B4A934210D089
:1033300020E04020FFF702FF3868FFF737FD3860D4
:103340000F490F4B1B6F23F003023B6813430B67BE
:1033500010E04020FFF7F2FE3868FFF727FD3860E5
:103360000749074B1B6F23F030023B681B011343D7
:103370000B6700BF00E000BF1037BD46B0BD00BF07
:1033800000800C40602614006016100060002600CB
:1033900060062A00700716007017180080B586B006
:1033A00000AF78600B46FB7000233B617B681B0A13
:1033B00003F00F03013B092B45D801A252F823F07B
:1033C000FD33000003340000E933000047340000FF
:1033D0004734000009340000133400004734000073
:1033E000473400001D340000194B7B61194800F080
:1033F0003DF803461846FFF701FD12E0164B7B61CE
:103400000FE0164B7B610CE0154B7B6101233B61A8
:1034100007E0144B7B6110233B6102E0124B7B61A0
:1034200000BF7B681B0B03F01F03FB603B69002B95
:1034300002D03869FFF782FEFB787869F9681A468E
:10344000FFF788FC00E000BF1837BD4680BD00BF15
:1034500040800C400043020008800C4044800C4037
:1034600058800C4060800C4078800C4090B585B04E
:1034700000AF78607B6803F47813B3F5A01F5DD0CC
:10348000B3F5A01F17D8B3F5802F34D0B3F5802F34
:1034900005D8002B2BD0B3F5003F38D0BBE0B3F5F7
:1034A000602F00F0B480B3F5801F39D0B3F5402F02
:1034B00000F0A980AFE0B3F5E01F00F08480B3F521
:1034C000E01F0AD8B3F5C01F00F08F80B3F5D01FFE
:1034D00021D0B3F5B01F7BD09DE0B3F5201F4ED0B7
:1034E000B3F5281F62D0B3F5181F35D093E0FCF771
:1034F000A9FEF86092E0FCF7A5FEF8604A4B9B68D5
:1035000003F00F031A46FB68D340FB6086E0FCF72C
:1035100075FEF86082E04548FFF79AFDF8607DE0AF
:103520004248FFF795FDF8603F4B9B6E03F0F003B8
:103530001B091A46FB68D340FB606FE03B48FFF76E
:1035400087FDF860384B9B6E03F470631B0A1A46C4
:10355000FB68D340FB6061E03448FFF779FDF86019
:10356000314B9B6E03F440531C0B1020FFF71EFCE5
:10357000034623441A46FB68D340FB604EE02B48C9
:10358000FFF766FDF860284B9B6E03F440531B0B5E
:103590001A46FB68D340FB60234BDB6F03F0070345
:1035A0000133FA68B2FBF3F3FB6037E01F48FFF723
:1035B0004FFDF8601C4B9B6E03F003031A46FB683B
:1035C000D340FB602AE01A48FFF742FDF86025E08F
:1035D0001748FFF73DFDF860134B1B6F03F0030323
:1035E0001A46FB68D340FB6018E01148FFF730FD36
:1035F000F8600D4B1B6F03F030031B091A46FB6884
:10360000D340FB600AE0FFF791FCF86006E0FFF7AB
:1036100035FCF86002E00023FB6000BFFB68184641
:103620001437BD4690BD00BF00800C4002001A0058
:1036300003001C0080B485B000AF78600123FB73E9
:103640007B6803F00F03BB60BB68013B052B77D899
:1036500001A252F823F000BF71360000A736000027
:10366000E336000041370000413700001F370000FB
:10367000384BDB6A03F47053B3F5805F09D0B3F5C0
:10368000005F03D0B3F5006F06D008E00223FB73A0
:1036900008E00323FB7305E00423FB7302E005232A
:1036A000FB7300BF4FE02B4B9B6A03F00303022B1D
:1036B00006D0032B07D0012B08D10323FB730FE0A7
:1036C0000223FB730CE00623FB7309E0214B9B6A8A
:1036D00003F48033002B02D00A23FB7300E000BF09
:1036E00031E01C4B9B6A03F00C03082B06D00C2B1B
:1036F00007D0042B08D10323FB730FE00223FB73D5
:103700000CE00623FB7309E0124B9B6A03F4801361
:10371000002B02D00A23FB7300E000BF13E00D4B27
:103720001B6803F08053002B03D0B3F1805F03D0FC
:1037300009E00723FB7302E00923FB7300BF02E0EB
:103740000023FB7300BFFB7B18461437BD465DF8B2
:10375000047B704700800C4080B588B000AF786073
:103760000B46FB700323FB610323FB7600233B61C5
:103770007B6803F00F03FB60FB68013B052B00F245
:10378000E88001A252F823F0A1370000673800005A
:103790006738000053390000533900002939000010
:1037A000FB78023B082B00F2D68001A252F823F0EE
:1037B000D5370000DF370000E9370000233800006C
:1037C00057390000573900005739000057390000B9
:1037D000573900000423FB610023FB7629E0032313
:1037E000FB610123FB7624E00223FB610223FB76CD
:1037F0005C48FFF703FBFCF7A5FD02465A4B9A42D3
:1038000006D95A4A594B1B6843F06003136010E015
:10381000564A564B1B6823F0600343F020031360A5
:1038200007E00123FB610323FB764E48FFF7E6FA2E
:1038300000BFFB7E18460121012200F09DF8FFF732
:10384000F1FB4A4AFB6953624948FFF70FFE034602
:103850001846FFF7D3FAFCF7D1FCB860B86800212E
:10386000FFF7EAFB7AE0FB78013B092B75D801A250
:1038700052F823F09D380000A3380000B338000050
:103880005B3900005B390000C33800005B39000081
:103890005B3900005B390000DF38000000237B61EA
:1038A00022E000200121012200F066F802237B6162
:1038B0001AE001200121012200F05EF801237B6162
:1038C00012E0FCF79BFCB860B868FFF797FA29484C
:1038D00004210122FFF73EFA03237B6104E0002369
:1038E0007B6101233B6100BFFB68022B0DD11F49A7
:1038F0001E4B9B6A23F4803323F003037A691A4337
:103900003B691B0413438B6228E01849174B9B6AE1
:1039100023F4801323F00C037A6992001A433B6965
:103920001B0513438B6219E0FB78072B02D0092B90
:1039300007D013E00D4A0D4B1B6823F08053136032
:1039400006E00A4A094B1B6843F08053136000BF2E
:1039500004E000BF02E000BF00E000BF2037BD462A
:1039600080BD00BF01366E010048E80100800C40B8
:103970000043020040800C4080B586B000AF034693
:10398000FB710B46BB7113467B71FB79042B48D846
:1039900001A252F823F000BFE5390000D73900003A
:1039A000BB390000AD390000C939000001233B617B
:1039B0000223FB6001237B611DE004233B6108239C
:1039C000FB6003237B6116E010233B612023FB6037
:1039D00005237B610FE040233B618023FB600723CD
:1039E0007B6108E04FF480733B614FF40073FB6030
:1039F00009237B6100BFBB79002B0ED00B4A3B69CA
:103A000013627B79002B0DD000BF09487969FFF75D
:103A1000B7F90346002BF8D004E0044AFB681362B0
:103A200000E000BF1837BD4680BD00BF00800C40DD
:103A30002C800C4080B483B000AFEFF310833B6068
:103A40003B687B6072B67B6818460C37BD465DF8F4
:103A5000047B704780B483B000AF78607B68002B34
:103A600000D162B60C37BD465DF8047B704700BFDD
:103A700080B483B000AF0346FB71084997F9073063
:103A80005B09FA7902F01F02012000FA02F241F804
:103A900023200C37BD465DF8047B704700E100E051
:103AA00080B483B000AF0346FB71094997F9073032
:103AB0005B09FA7902F01F02012000FA02F22033BA
:103AC00041F823200C37BD465DF8047B704700BFEA
:103AD00000E100E080B483B000AF0346FB71094908
:103AE00097F907305B09FA7902F01F02012000FA0A
:103AF00002F2603341F823200C37BD465DF8047BA9
:103B0000704700BF00E100E080B487B000AFF8600C
:103B1000B9607A60FB6803F10473DA00BB68134490
:103B20009B007B617B697A681A601C37BD465DF833
:103B3000047B704780B489B000AF786008461146B6
:103B40001A460346FB700B46BB7013467B707B68BE
:103B50001A013C4B9B681344BB61BB78002B02D01D
:103B6000BB69FB6105E07B681A01364BDB681344D7
:103B7000FB61BB69DB687B617B69002B02D0BA7893
:103B80007B691A72FB6A002B14D0FB699B6803F0F7
:103B900040639B0E3B613B69032B03D1FB69FA6ACF
:103BA0001A6007E03B693A6B9A40FB6A13441A4675
:103BB000FB691A60BB6A002B12D0FB699B689B0FE4
:103BC0003B613B69032B03D1FB69BA6A5A6007E08A
:103BD0003B693A6B9A40BB6A13441A46FB695A60C8
:103BE0007B68012202FA03F3FB607B78002B03D091
:103BF000144AFB68936102E0124AFB68D361BB7808
:103C0000002B03D00F4AFB68536302E00D4AFB68A8
:103C10001363FB699B6823F47F5323F03703BB6076
:103C20003B6B1B01BA681343BB60FB78BA68134354
:103C3000BB60FB69BA689A602437BD465DF8047BB7
:103C4000704700BF00200C4090B589B004AFF86009
:103C50007B600B46FB721346BB72FA7ABC7A7B68B8
:103C600000933B6A01937B6A0293F8680121234623
:103C7000FFF760FF044AFB68012101FA03F3936236
:103C80001437BD4690BD00BF00200C4080B584B005
:103C900000AF786039601F4B9B68FB607B681B013D
:103CA000FA6813443A689268DA603B681B78002B24
:103CB00006D0184A7B68012101FA03F3936305E0FB
:103CC000144A7B68012101FA03F3D36311493B686D
:103CD0005A687B6803F5886341F823203B685B786A
:103CE000002B0FD00B4A7B68012101FA03F3194620
:103CF00002F5805308331960074879680122FFF7FD
:103D000003FF04E0044879680022FFF7FDFE103746
:103D1000BD4680BD00200C400C300C4080B487B004
:103D200000AFF8600B467A60FB72FB7A002B03D081
:103D3000154B9B687B6102E0134BDB687B61FB6882
:103D40001B017A6913447B617B681B789A077B6847
:103D50009B781B071A437B685B789B061A437B683A
:103D60009B781B0613431A467B681B799B041343FD
:103D70007A68D27892031A437B699A601C37BD46F1
:103D80005DF8047B704700BF00200C4080B582B016
:103D900000AF786010480121FFF700FB00F020F829
:103DA0000020FFF797FE0020FFF762FE0B4B03F5A4
:103DB00080530C334FF000421A60084A7B685B68FE
:103DC0009360064A7B681B785B0143F001035360F4
:103DD0000837BD4680BD00BF0003020000200C4034
:103DE00080B582B000AF0020FFF75AFE1C4B0022C6
:103DF0005A601B4B40F6FF72DA61194B40F6FF72B6
:103E00005A62174B40F6FF72DA62154B40F6FF72AA
:103E10005A63134B40F6FF72DA63114B0122DA64E6
:103E20000F4B03F580530C3300221A600C4B03F543
:103E3000805308330B4A1A6000237B6009E0084A6C
:103E40007B6803F58863002142F823107B68013307
:103E50007B607B680B2BF2DD0837BD4680BD00BF61
:103E600000200C40FF0F008080B487B000AFF860E6
:103E7000B9607A60FB6803F10473DA00BB6813442D
:103E80009B007B617B697A681A601C37BD465DF8D0
:103E9000047B704780B485B000AFF860B9607A6089
:103EA000FB681A68BB68DB431A407B681A43FB68EF
:103EB0001A601437BD465DF8047B704780B483B048
:103EC00000AF03463960FB71FB79002B0DD0FB7905
:103ED000012B0AD0FB79022B07D0FB79032B04D0EE
:103EE000FB79042B01D0FB79052B0949FA793B6852
:103EF000012000FA03F318461346DB0013449B002D
:103F00000B44103358600C37BD465DF8047B704796
:103F10000060004080B483B000AF03463960FB719D
:103F2000FB79002B0DD0FB79012B0AD0FB79022BFA
:103F300007D0FB79032B04D0FB79042B01D0FB794C
:103F4000052B0949FA793B68012000FA03F318466A
:103F50001346DB0013449B000B44103318600C37EE
:103F6000BD465DF8047B70470060004080B586B0B8
:103F700000AFB9607A601A460346FB731346BB7301
:103F800000237B61FB7B002B0DD0FB7B012B0AD038
:103F9000FB7B022B07D0FB7B032B04D0FB7B042B8A
:103FA00001D0FB7B052B7B68072B0ED87B689B0021
:103FB0001A46072303FA02F1FB7B7A6892009340CA
:103FC00019481A46FFF766FF10E07B68083B7B61E3
:103FD0007B699B001A46072303FA02F1FB7B7A698F
:103FE0009200934011481A46FFF754FFBB7B1048DC
:103FF00079681A46FFF738FF97F820300D4879683E
:104000001A46FFF731FF0C4A7B68012101FA03F3DE
:10401000C2F81C3197F82430084879681A46FFF72F
:1040200023FF1837BD4680BD006100400461004099
:10403000086100400C6100400060004010610040D9
:1040400090B585B000AFB9607B600346FB73134643
:10405000BB73FB7B002B0DD0FB7B012B0AD0FB7BC2
:10406000022B07D0FB7B032B04D0FB7B042B01D05E
:10407000FB7B052BBB7B002B0DD07B68002B05D079
:10408000FB7B1846B968FFF745FF04E0FB7B184649
:10409000B968FFF713FFBB68072B1CD82A4CFA7BC3
:1040A0002948F97B0B46DB000B449B00034459680D
:1040B000BB689B0018460F238340DB430B40B97B52
:1040C000B8688000814019431346DB0013449B000D
:1040D0002344596024E01C4CFA7B1B48F97B0B46B7
:1040E000DB000B449B00034408331968BB6803F1F1
:1040F0008043083B9B0018460F238340DB43194055
:10410000B87BBB6803F18043083B9B0000FA03F3D4
:1041100019431346DB0013449B0023440833196002
:10412000BB7B002B0DD17B68002B05D0FB7B184699
:10413000B968FFF7EFFE04E0FB7B1846B968FFF7AC
:10414000BDFE1437BD4690BD0060004080B483B012
:1041500000AF786039607B681B6C03F00103002BB3
:1041600000D006E000BF7B685A6C3B681340002B10
:10417000F9D10C37BD465DF8047B704780B487B039
:1041800000AF786039603A6847F6F87313403B60D7
:104190003B6803F580737B617A687B69B2FBF3F35C
:1041A0003B617B687A69B3FBF2F2796901FB02F249
:1041B0009B1AFB603B691B02BB60FB681A027B69B0
:1041C000B2FBF3F3BA681344BB60BB6818461C37F4
:1041D000BD465DF8047B704780B584B000AF786061
:1041E0007B680F4A934202D10E4BFB6008E07B686C
:1041F0000D4A934202D10D4BFB6001E000230AE01F
:10420000F868FFF733F9B8607B68DB68B86819466F
:10421000FFF7B4FF034618461037BD4680BD00BF08
:10422000004008407007160000440840701718004E
:1042300080B586B000AFF860B9607A60BB68002BCB
:1042400012D1FB68164A934202D1164B7B6107E0FC
:10425000FB68154A934202D1144B7B6100E01BE0DE
:104260007869FFF703F9B860BB685A017B68B2FB55
:10427000F3F33B613B69203B3B613B69DB003B6106
:104280003A6947F6F87313403B61F8680421FFF779
:104290005DFFFB683A69DA601837BD4680BD00BF34
:1042A00000400840700716000044084070171800CE
:1042B00080B584B000AF78600B46FB707B68104A15
:1042C000934203D07B680F4A934200D100BFFB7832
:1042D000DB43FB60FB6803F00503FB60FB685B00EE
:1042E000FB60FB78FA681343FB6078680221FFF7F4
:1042F0002DFF7B68FA685A601037BD4680BD00BF4D
:10430000004008400044084080B483B000AF7860AB
:104310000B46FB70FB78002B08D000BF7B685B6C02
:10432000002BFBD17B6801221A6402E07B6800222B
:104330001A640C37BD465DF8047B704780B582B0C7
:1043400000AF786039607B681B4A934203D07B687A
:104350001A4A934200D100BF78680221FFF7F6FEA7
:104360007B680A225A6078680121FFF7CDFF7B68DD
:104370001B6823F01C033A68127B13433A68527B94
:1043800013433A68927B1A437B681A603B685A6809
:104390003B689B68786811461A46FFF749FF3B68FF
:1043A0001B781A467B685A6078680021FFF7ACFFDB
:1043B0000837BD4680BD00BF0040084000440840AB
:1043C00080B582B000AF78607B68174A934203D013
:1043D0007B68164A934200D100BF78680121FFF73D
:1043E00093FF7B68EA225A607B6800221A607B6830
:1043F0000022DA607B6800221A617B6800225A6121
:104400007B6800229A637B6840F2F9725A637B688A
:104410000022DA637B6800225A6578680021FFF782
:1044200073FF0837BD4680BD004008400044084087
:1044300080B487B000AFF860B9607A60FB6803F1C0
:104440000473DA00BB6813449B007B617B697A6864
:104450001A601C37BD465DF8047B704780B485B098
:1044600000AF786039607B68002B02D0012B03D04D
:1044700008E0074BFB6002E0064BFB6000BFFB68F7
:104480003A681A601437BD465DF8047B704700BF78
:10449000080008400C00084080B582B000AF034619
:1044A000FB71FB79034800211A46FFF7C1FF08376B
:1044B000BD4680BD0000084080B485B000AF786084
:1044C0007B681B78002B02D00123FB6001E00023F6
:1044D000FB607B685B78002B03D0FB6843F0020332
:1044E000FB607B689B78002B03D0FB6843F00403E0
:1044F000FB60044AFB6813601437BD465DF8047B1B
:10450000704700BF0000084080B483B000AF7860FF
:104510007B680D4A93420BD07B680C4A934207D0CC
:104520007B680B4A934203D07B680A4A934201D1CD
:10453000012300E0002303F00103DBB218460C372F
:10454000BD465DF8047B7047000001400004014057
:1045500000080140000C014080B582B000AF7860D7
:1045600039607868FFF7D0FF3B681B7883F0010360
:10457000DBB2002B02D07B6802225A607B680022EB
:104580005A623B689B781A063B68DB781B041A4327
:104590003B689B799B021A433B68DB791B02134300
:1045A0003A68127A1A433B685B78002B01D04023AB
:1045B00000E000231A433B685B7A002B01D0802384
:1045C00000E000231A433B689B7A002B01D0202394
:1045D00000E000231A433B68DB7A002B01D0102354
:1045E00000E000231A433B681B79002B02D04FF4F4
:1045F000005300E000231A433B685B79002B02D094
:104600004FF0805300E000231A433B681B7B002BD4
:1046100001D0082300E000231A437B681A603B683E
:104620001B78002B02D07B6801225A600837BD46F8
:1046300080BD00BF80B584B000AFF860B9607A601B
:10464000F868FFF761FF7B681B789A067B685B78E8
:104650001B061A437B689B781B041A437B68DB7834
:104660001B031A437B681B799B021A437B685B79A7
:104670001B0213437A6892791A437B68DB79002B1B
:1046800002D04FF4001300E000231A437B681B7A2A
:10469000002B02D04FF4801300E000231A437B6804
:1046A0005B7A002B01D0102300E000231A437B68C3
:1046B0009B7A002B01D0042300E000231A43F96801
:1046C000BB6803331B010B441A601037BD4680BD25
:1046D00080B586B000AFF860B9607A60FB70BB68E7
:1046E000002B03D12448FEF7C1FEB860FB78202BD5
:1046F0000CD0202B02DC002B05D03AE0402B08D058
:10470000602B09D035E010237B6108E008237B6132
:1047100005E006237B6102E004237B6100BFBB68E8
:104720009A007B69796801FB03F35B0813443B61E2
:104730007B697A6802FB03F33A69B2FBF3F33B61EE
:104740003B69043B3B613B699B013B613A690B4B15
:1047500013403B61FB681B6823F06002FB681A6032
:10476000FB681A68FB781A43FB681A60FB683A69B1
:104770005A611837BD4680BD40810400C0FF1F004C
:1047800080B586B000AFF860B9607A60BB68002B76
:1047900003D10A48FEF76AFEB860BB685A1E7B6800
:1047A0005B00B2FBF3F37B617B691B027B61FB68FF
:1047B0007A695A611837BD4680BD00BF4081040048
:1047C00080B485B000AF78600B46FB707B680F4A01
:1047D000934207D07B680E4A934203D07B680D4A10
:1047E000934200D100BFFB78DB43FB60FB6803F022
:1047F0000503FB60FB685A007B68DA60FA787B6827
:10480000DA601437BD465DF8047B704700C0004095
:1048100000C4004000C8004080B582B000AF78609E
:1048200039607B68204A934207D07B681F4A9342D5
:1048300003D07B681E4A934200D100BF786800F025
:104840009FF83B689B7C002B05D07B681B6843F07E
:1048500080427B681A603B68DB7C002B07D03B689A
:104860001B7D43F01003DBB21A467B689A653B68F8
:104870005B7B1A463B681B8A13433A68D2891A430A
:104880007B685A603B6859683B689A683B681B7B49
:104890007868FFF71DFF3B681B781A467B68DA6073
:1048A0000837BD4680BD00BF00C0004000C40040C6
:1048B00000C8004080B582B000AF786039607B6886
:1048C0002C4A934207D07B682B4A934203D07B68E3
:1048D0002A4A934200D100BF786800F051F87B6803
:1048E0001A683B681B8A43F001039BB219463B6878
:1048F0009B7B002B02D04FF4806300E000230B432E
:104900001A437B681A607B681A683B681B7D002B22
:1049100002D04FF0005300E000231A437B681A6076
:104920003B689B7C002B07D03B68DB7C43F010038B
:10493000DBB21A467B689A653B681B7B43F4805266
:104940007B685A603B685A683B689B687868114688
:104950001A46FFF715FF3B685B7B002B02D07B6894
:104960001022DA603B681B781A467B68DA600837E9
:10497000BD4680BD00C0004000C4004000C80040EB
:1049800080B483B000AF78607B68204A934207D040
:104990007B681F4A934203D07B681E4A934200D132
:1049A00000BF7B6840F6AA62DA607B6800221A606A
:1049B0007B6841F205025A607B6800229A607B683E
:1049C00000225A617B680022DA647B6841F6F97242
:1049D0009A647B6800225A657B680C4A934202D134
:1049E0007B6800221A657B6800229A657B68084A0A
:1049F000934203D07B68074A934202D17B6800222E
:104A0000DA650C37BD465DF8047B704700C0004096
:104A100000C4004000C8004080B483B000AF78609C
:104A200000BF7B681B6903F08003002BF9D07B6813
:104A3000DB69DBB218460C37BD465DF8047B704776
:104A400080B483B000AF786000BF7B681B6903F45B
:104A50008073002BF9D07B685B6A9BB218460C37D9
:104A6000BD465DF8047B704780B483B000AF7860CA
:104A70000B46FB7000BF7B681B6903F04003002BF3
:104A8000F9D0FA787B685A6300BF7B681B6903F032
:104A90002003002BF9D07B68DB69DBB218460C37AA
:104AA000BD465DF8047B704780B483B000AF78608A
:104AB0000B46FB7000BF7B681B6903F04003002BB3
:104AC000F9D0FA787B685A630C37BD465DF8047BF1
:104AD000704700BF80B582B000AF0D4B1B684FF42C
:104AE000FA7202FB03F37B60FF2000F013F8034629
:104AF000FB70FB78FF2B05D07B68013B7B607B68FC
:104B0000002BF1D1FB7818460837BD4680BD00BFA9
:104B10004005002080B582B000AF0346FB71094B11
:104B20001B68002B04D0074B1B68013B054A136030
:104B3000FB7905481946FFF797FF034618460837E3
:104B4000BD4680BD3C05002000C8004080B500AFD8
:104B5000034B40225A63FF20FFF7DCFF80BD00BFFC
:104B60000060004080B500AF074B40229A63FFF71A
:104B7000B1FF0346FF2B03D0FFF7E8FF002300E05F
:104B80000123184680BD00BF0060004080B588B09A
:104B900000AF786039603E4B1B68642202FB03F370
:104BA000FB61FF20FFF7B6FF0346FB76FB7EFF2B82
:104BB00005D1FB69013BFB61FB69002BF1D1FB7E59
:104BC000FE2B01D000235EE0324B5B687B61314BF2
:104BD0001B683B612F4A2F4B5B6823F00F0343F0A8
:104BE0000D0353602B4A2B4B1B6843F0805313601B
:104BF000284B4FF44062DA603B689A1C264B1B68D6
:104C00009A4207D8244B1A683B68D31A023B224ABF
:104C1000136002E0204B00221A601E4B4FF6FF7219
:104C2000DA631C4B4FF6FF72DA6300BF194B1B6946
:104C300003F08003002BF9D0164B5B6AFB817B6885
:104C40005A1C7A60FA89D2B21A707B685A1C7A6050
:104C5000FA89120A92B2D2B21A703B68023B3B60E8
:104C60003B68002BDDD100BF0A4B1B6903F08003BA
:104C7000002BF9D0074B5B6A064A7B695360054AF3
:104C80003B691360012318462037BD4680BD00BF35
:104C90004005002000C800403C05002080B586B0DB
:104CA00000AF78600B46FB704FF400737B61FFF739
:104CB00011FF0346FF2B01D0002379E0FB78184653
:104CC000FFF728FFFB78FD2B01D1012370E03A4B61
:104CD0005B683B61384B1B68FB60374A364B5B684F
:104CE00023F00F0343F00D035360334A324B1B682C
:104CF00043F080531360304B4FF44062DA607B69BD
:104D00009A1C2E4B1B689A4207D82C4B1A687B6959
:104D1000D31A023B294A136002E0284B00221A6092
:104D20007B685A1C7A601B787B817B685A1C7A608E
:104D30001B781B029AB27B8913439BB27B817B69F0
:104D4000023B7B6100BF1C4B1B6903F04003002B3F
:104D5000F9D0194A7B89D3637B69002BE0D100BF6E
:104D6000154B1B6903F04003002BF9D0124B4FF693
:104D7000FF72DA6300BF104B1B6903F02003002BA6
:104D8000F9D00D4B4FF44062DA600B4A3B69536037
:104D9000094AFB681360FF20FFF7BCFE03467B72E5
:104DA0007B7A03F01F03052B01D0002300E00123D1
:104DB00018461837BD4680BD00C800403C0500209D
:104DC00080B586B000AF03463960FB71FB795BB2FA
:104DD000002B0EDAFB7903F07F03FB7137200021F3
:104DE000FFF7EEFF0346FB73FB7B012B01D9FB7B37
:104DF0004EE0FFF7ABFEFFF7B5FE0346002B01D1F7
:104E0000FF2345E0FB7943F04003DBB21846FFF790
:104E100081FE3B681B0EDBB21846FFF77BFE3B684A
:104E20001B0CDBB21846FFF775FE3B681B0ADBB2B2
:104E30001846FFF76FFE3B68DBB21846FFF76AFEC5
:104E40000123FB75FB79002B01D19523FB75FB79C1
:104E5000082B01D18723FB75FB7D1846FFF75AFE0F
:104E6000FB790C2B02D1FF20FFF754FE0A233B6194
:104E7000FF20FFF74FFE0346FB73FB7B5BB2002B6B
:104E800005DA3B69013B3B613B69002BF0D1FB7BC1
:104E900018461837BD4680BD80B483B000AF786037
:104EA00039607B68DA6C3B68DB431A407B68DA6404
:104EB0000C37BD465DF8047B704700BF80B483B0FB
:104EC00000AF78600849084B03F580530C331A682B
:104ED0007B68DB431A4001F580530C331A600C37B2
:104EE000BD465DF8047B704700200C4080B483B061
:104EF00000AF786039607B689A6B3B68DB431A408F
:104F00007B689A630C37BD465DF8047B704700BF31
:104F100080B500AF354B1B78032B5CD801A252F84B
:104F200023F000BF354F0000654F00008F4F000099
:104F3000A74F00002E4B00221A602E4B1A682E4BF2
:104F40001B681046194600F0C7FE284B03221A7052
:104F50002A4B1B68DB6A002B03D0244B01221A70FA
:104F600039E038E0264B1A68264B1B681046194674
:104F700000F07EFE1D4B03221A70204B1B68DB6A7B
:104F8000012B03D9194B02221A7024E023E01E4B97
:104F90001A681E4B1B681046194600F069FE134B39
:104FA00003221A7017E000F0D9FD194B1B6801337A
:104FB000174A13600D4B04221A70164B1B78042BF2
:104FC00001D100F0CFF91448FDF716FB03461A464D
:104FD000124B1A6000BF124B1B78DBB2002B04D0BF
:104FE0000F4B00221A70FBF7E9FB80BDA80A0020D6
:104FF000840A0020500F00204C0A0020840000206A
:10500000200F00206C0A00208C0A0020680A002073
:10501000600F0020700A0020C00C0020740A0020DD
:105020000D00002080B582B000AF0023FB801E4B36
:105030001B6903F08003002B32D01B48FFF700FDF3
:105040000346FB80184A184BDB6843F40063D360C7
:10505000FB8841F61E62934222D114484FF48061CE
:10506000FFF744FF10480221FFF716FF0120FFF76A
:1050700025FF01F08DFC00200D2104220123FEF705
:10508000DFFF0B4B01221A700A4B05221A700A4BE4
:1050900004221A7000200D2104220023FEF7D0FF05
:1050A0000837BD4680BD00BF00C400400040084036
:1050B0006C0F0020700A0020A80A002080B483B082
:1050C00000AF0346FB71084997F907305B09FA798D
:1050D00002F01F02012000FA02F241F823200C37EF
:1050E000BD465DF8047B704700E100E080B483B00A
:1050F00000AF03463960FB7197F90730002B0BDADC
:105100000D49FB7903F00F03043B3A68D2B2520118
:10511000D2B20B441A7609E0084997F907303A6889
:10512000D2B25201D2B20B4483F800230C37BD46F1
:105130005DF8047B704700BF00ED00E000E100E097
:1051400080B483B000AF78600849084B03F5805302
:105150000C331A687B681A4301F580530C331A60CC
:105160000C37BD465DF8047B704700BF00200C4043
:1051700080B483B000AF786039607B689A6B3B681D
:10518000DB431A407B689A630C37BD465DF8047BAD
:10519000704700BF80B483B000AF786039607B682F
:1051A0009A6B3B681A437B689A630C37BD465DF87F
:1051B000047B704780B483B000AF78607B68DB6AA3
:1051C00018460C37BD465DF8047B704780B500AFCC
:1051D00053480621FEF7C0FA51480121FEF7DEF8D8
:1051E000504A504B1B6843F0804313604D4A4D4B6F
:1051F0005B6843F4807353604A4A4A4B1B6F43F029
:105200000303136748480121FEF7C8F84748012106
:10521000FEF7C4F8464B1B685B68184603F0C2FBF8
:105220000246444B1A60444B1B681B695A08404BAA
:105230001B689B68B2FBF3F3184602F0A1FE02461E
:105240000B461046194602F083FC02460B461046F8
:1052500019464FF00002394B02F054FD02460B464E
:105260001046194603F0C4F90246354B1A60304B1C
:105270001B685B680933334A1360314B1B68314A42
:10528000126802FB03F3304A13602F4B1B68184669
:1052900003F088FB02462D4B1A602D4B2D4A1A60F5
:1052A0002D48FFF78DF82C482C49FFF747F82A4B7B
:1052B00003225A65284B80225A602748FEF78CFF4C
:1052C0000246274B1A60244B01221A64224B0A2201
:1052D0005A61214A204B5B6843F0100353601E4B18
:1052E0004FF480521A601C4B00221A6400BF1A4B04
:1052F0005B6C002BFBD118480521FEF7D9FF00F0AD
:1053000031F800F051FA14484FF48061FFF742FF82
:1053100018200121FFF7EAFE1820FFF7CFFE80BD1D
:1053200003001C0000800C400043020070071600C0
:105330008C000020880A0020840000200000F03F3C
:10534000180F0020480A00206C0A0020200F0020BF
:105350007C0A0020B4AF000000400840100000208C
:10536000940A002080B483B000AF00237B603FE04C
:105370007B68244A1268B3FBF2F102FB01F29B1A2C
:10538000082B06D1204B1A687B6813442C221A7014
:1053900005E01D4B1A687B68134430221A707B6845
:1053A000184A1268B3FBF2F102FB01F29A1A154B8C
:1053B0001B68023B9A4205D1134B1A687B68134461
:1053C0000D221A707B680F4A1268B3FBF2F102FBE0
:1053D00001F29A1A0B4B1B68013B9A4205D10A4B0A
:1053E0001A687B6813440A221A707B6801337B6059
:1053F0007A68064B1B689A42BAD30C37BD465DF8F3
:10540000047B7047480A0020200F00206C0A00200F
:1054100080B400AFBD465DF8047B704790B585B0A1
:1054200002AF29484FF48061FFF7A2FE2648FFF73C
:10543000C1FE7860244B01221A64234A224B5B6828
:1054400043F020035360204B00221A6400BF1E4B20
:105450005B6C002BFBD17B6803F48063002B2FD0A7
:105460001A491A4B03F5805308331B6843F00102B5
:1054700001F5805308331A600120FFF761FE144BD9
:105480001968144B1C68144B1B685B68013B134A7A
:10549000009201930846012100222346FEF7D4FB27
:1054A0000F4B1B68012B0BD90E484C21FFF7FCFA60
:1054B0000C480D21FFF7F8FA0A480A21FFF7F4FA21
:1054C0000C37BD4690BD00BF0040084000200C4096
:1054D000800A0020880A00208C0000201C40084020
:1054E000680F002000C4004080B483B000AF0346C2
:1054F000FB71084997F907305B09FA7902F01F023E
:10550000012000FA02F241F823200C37BD465DF875
:10551000047B704700E100E080B483B000AF7860A6
:10552000034A7B6893630C37BD465DF8047B704784
:1055300000800C4080B483B000AF78600549054B13
:10554000DA6B7B681343CB630C37BD465DF8047B95
:10555000704700BF00800C4080B400AF034B1B6B52
:105560001846BD465DF8047B704700BF00800C40C4
:1055700080B582B000AFFFF7EFFF78600320FFF740
:10558000CBFF7B6803F00203002B0BD0112004211A
:10559000FEF7E2F8032000210022FEF7EDF9034BAD
:1055A00001221A600837BD4680BD00BF44050020B7
:1055B00080B500AF11200521FEF7CEF81C4801216F
:1055C000FDF7ECFE1B480121FDF7E8FE1A4801211A
:1055D000FDF7E4FE19480121FDF7E0FE022001215C
:1055E0000022FEF7C9F90220FFF7A4FF2020FFF7F1
:1055F0007BFF00BF124B1B68012BFBD1114A114BE3
:105600001B6823F0030343F0020313600D4A0D4BA4
:105610001B6823F4E00343F480131360094A094B29
:10562000D3F8803043F00103C2F8803080BD00BF62
:1056300000D2040000520400006204000082040052
:105640004405002000800C4080B483B000AF0346C6
:10565000FB71084997F907305B09FA7902F01F02DC
:10566000012000FA02F241F823200C37BD465DF814
:10567000047B704700E100E080B483B000AF0346D4
:105680003960FB7197F90730002B0BDA0D49FB7974
:1056900003F00F03043B3A68D2B25201D2B20B447A
:1056A0001A7609E0084997F907303A68D2B25201F0
:1056B000D2B20B4483F800230C37BD465DF8047B5F
:1056C000704700BF00ED00E000E100E080B483B06F
:1056D00000AF7860054B03F5805308337A681A6091
:1056E0000C37BD465DF8047B704700BF00200C40BE
:1056F00080B483B000AF78600849084B03F580534D
:105700000C331A687B68DB431A4001F580530C3375
:105710001A600C37BD465DF8047B704700200C40D2
:1057200080B483B000AF78600849084B03F580531C
:105730000C331A687B681A4301F580530C331A60E6
:105740000C37BD465DF8047B704700BF00200C405D
:1057500080B400AF044B03F580531B681846BD4668
:105760005DF8047B704700BF00200C4080B483B01C
:1057700000AF786039607B683A685A630C37BD4681
:105780005DF8047B704700BF80B483B000AF7860E1
:1057900039607B689A6B3B681A437B689A630C3765
:1057A000BD465DF8047B704780B500AF294B0022F1
:1057B0001A6029480121FDF7F1FD264B1B681846A8
:1057C000FDF7B2F8FDF7F2F822480021FDF752F894
:1057D0000346002B02D0214803F0E8FB204B0022B7
:1057E000DA701F4B00221A701D4B00221A711C4BDD
:1057F00000229A701A4B03225A701A4B00229A60A8
:10580000184B01225A70174B00221A70154B4FF497
:1058100080125A600F4B1B6818461249FEF736FA81
:105820000C4B1B68184601210D4AFEF777FA094B0D
:105830001B68184600210A4AFEF770FA4FF0FF3045
:10584000FFF744FF0020FFF7FFFE00200121FFF7D4
:1058500013FF80BD800A002000030200BCAF0000DF
:10586000100F0020980A002090B587B002AFFFF714
:105870006FFF0346BB60BB681846FFF739FF4FF068
:10588000FF30FFF723FFBB68012B03D0022B00F092
:10589000A8809BE0554B1A68554B1B685B68013B21
:1058A00013441A78524B1B681B7B9A4272D1514B9E
:1058B00080225A604E4B1B685B6809334E4A12685F
:1058C00002FB03F37B604C4B1B6801334A4A1360B5
:1058D0000023FB6044E0FB68072B16DC474B1B688A
:1058E000F9687A680A449C18454B1A68FB68C3F14A
:1058F00007039B0022FA03F3DBB203F00F03DBB2D2
:10590000184602F0C3F803462370FB68082B07D142
:105910003A4B1B68F9687A680A4413442C221A70BF
:10592000FB68082B0CDD354B1B68F9687A680A4464
:1059300013442E4A1168FA68093A0A4412781A7018
:105940002E4B1B68F9687A680A4413441B781A4680
:105950002C4B1B6853402B4A1360FB680133FB60E0
:10596000FA68294B1B689A42B5D30120FFF7D8FE8D
:10597000264B19681D4B1C681D4B1B685B68013B5F
:10598000234A009201930846012100222346FEF794
:105990005BF927E0174B01221A64164A154B5B6826
:1059A00043F010035360134B00221A6400BF114BE5
:1059B0005B6C002BFBD10F484FF0FF31FFF7D6FE99
:1059C0000C484FF48061FFF7DFFE0BE009484FF011
:1059D000FF31FFF7CBFE07484FF48061FFF7D4FE9D
:1059E00000E000BF1437BD4690BD00BF880A00200C
:1059F0008C00002000400840680F0020200F00208D
:105A0000900A0020700F0020480A0020800A002021
:105A10001C40084080B582B000AF04200821042259
:105A20000123FEF70DFB0020052104220023FEF7D1
:105A300007FB0020042104220023FEF701FB0020C5
:105A40000C2104220023FEF7FBFA0020032101228F
:105A50000023FEF7F5FA0220042101220123FEF7BC
:105A6000EFFA01200B2104220123FEF7E9FA0520B9
:105A7000042104220023FEF7E3FA05200521042275
:105A80000123FEF7DDFA0520032104220123FEF79E
:105A9000D7FA0320072104220123FEF7D1FA0320BD
:105AA000062101220023FEF7CBFA03200521022262
:105AB0000123FEF7C5FA0320042104220123FEF787
:105AC000BFFA04200C2101220023FEF7B9FA0420BA
:105AD0000D2104220023FEF7B3FA00200221042244
